{
  "address": "0x9Ee221785F63c389137c1B364bdb3fc8fE3882dB",
  "abi": [
    {
      "inputs": [
        {
          "internalType": "uint256",
          "name": "_creatorFee",
          "type": "uint256"
        },
        {
          "internalType": "address",
          "name": "_vrfCoordinator",
          "type": "address"
        },
        {
          "internalType": "uint64",
          "name": "_subscriptionId",
          "type": "uint64"
        },
        {
          "internalType": "bytes32",
          "name": "_keyHash",
          "type": "bytes32"
        }
      ],
      "stateMutability": "nonpayable",
      "type": "constructor"
    },
    {
      "inputs": [
        {
          "internalType": "address",
          "name": "have",
          "type": "address"
        },
        {
          "internalType": "address",
          "name": "want",
          "type": "address"
        }
      ],
      "name": "OnlyCoordinatorCanFulfill",
      "type": "error"
    },
    {
      "anonymous": false,
      "inputs": [
        {
          "indexed": true,
          "internalType": "address",
          "name": "owner",
          "type": "address"
        },
        {
          "indexed": true,
          "internalType": "uint256",
          "name": "lotteryID",
          "type": "uint256"
        }
      ],
      "name": "LotteryCreatedEvent",
      "type": "event"
    },
    {
      "anonymous": false,
      "inputs": [
        {
          "indexed": true,
          "internalType": "address",
          "name": "previousOwner",
          "type": "address"
        },
        {
          "indexed": true,
          "internalType": "address",
          "name": "newOwner",
          "type": "address"
        }
      ],
      "name": "OwnershipTransferred",
      "type": "event"
    },
    {
      "anonymous": false,
      "inputs": [
        {
          "indexed": true,
          "internalType": "address",
          "name": "winner",
          "type": "address"
        },
        {
          "indexed": true,
          "internalType": "uint256",
          "name": "lotteryID",
          "type": "uint256"
        }
      ],
      "name": "WinnerCalculatedEvent",
      "type": "event"
    },
    {
      "inputs": [
        {
          "internalType": "uint256",
          "name": "lotteryID",
          "type": "uint256"
        }
      ],
      "name": "calculateWinner",
      "outputs": [],
      "stateMutability": "nonpayable",
      "type": "function"
    },
    {
      "inputs": [
        {
          "internalType": "uint256",
          "name": "_newFee",
          "type": "uint256"
        }
      ],
      "name": "changeCreatorFee",
      "outputs": [],
      "stateMutability": "nonpayable",
      "type": "function"
    },
    {
      "inputs": [
        {
          "internalType": "bytes",
          "name": "",
          "type": "bytes"
        }
      ],
      "name": "checkUpkeep",
      "outputs": [
        {
          "internalType": "bool",
          "name": "upkeepNeeded",
          "type": "bool"
        },
        {
          "internalType": "bytes",
          "name": "",
          "type": "bytes"
        }
      ],
      "stateMutability": "view",
      "type": "function"
    },
    {
      "inputs": [
        {
          "internalType": "uint256",
          "name": "entranceFee",
          "type": "uint256"
        },
        {
          "internalType": "uint256",
          "name": "duration",
          "type": "uint256"
        }
      ],
      "name": "createLimitedLottery",
      "outputs": [],
      "stateMutability": "payable",
      "type": "function"
    },
    {
      "inputs": [
        {
          "internalType": "uint256",
          "name": "entranceFee",
          "type": "uint256"
        }
      ],
      "name": "createLottery",
      "outputs": [],
      "stateMutability": "payable",
      "type": "function"
    },
    {
      "inputs": [],
      "name": "creatorFee",
      "outputs": [
        {
          "internalType": "uint256",
          "name": "",
          "type": "uint256"
        }
      ],
      "stateMutability": "view",
      "type": "function"
    },
    {
      "inputs": [
        {
          "internalType": "uint256",
          "name": "lotteryID",
          "type": "uint256"
        }
      ],
      "name": "enterLottery",
      "outputs": [],
      "stateMutability": "payable",
      "type": "function"
    },
    {
      "inputs": [
        {
          "internalType": "uint256",
          "name": "",
          "type": "uint256"
        }
      ],
      "name": "lotteryIDBalanceMapping",
      "outputs": [
        {
          "internalType": "uint256",
          "name": "",
          "type": "uint256"
        }
      ],
      "stateMutability": "view",
      "type": "function"
    },
    {
      "inputs": [
        {
          "internalType": "uint256",
          "name": "",
          "type": "uint256"
        }
      ],
      "name": "lotteryIDEndtimeMapping",
      "outputs": [
        {
          "internalType": "uint256",
          "name": "",
          "type": "uint256"
        }
      ],
      "stateMutability": "view",
      "type": "function"
    },
    {
      "inputs": [
        {
          "internalType": "uint256",
          "name": "",
          "type": "uint256"
        },
        {
          "internalType": "uint256",
          "name": "",
          "type": "uint256"
        }
      ],
      "name": "lotteryIDEntrancesMapping",
      "outputs": [
        {
          "internalType": "address payable",
          "name": "",
          "type": "address"
        }
      ],
      "stateMutability": "view",
      "type": "function"
    },
    {
      "inputs": [
        {
          "internalType": "uint256",
          "name": "",
          "type": "uint256"
        }
      ],
      "name": "lotteryIDFeeMapping",
      "outputs": [
        {
          "internalType": "uint256",
          "name": "",
          "type": "uint256"
        }
      ],
      "stateMutability": "view",
      "type": "function"
    },
    {
      "inputs": [
        {
          "internalType": "uint256",
          "name": "",
          "type": "uint256"
        }
      ],
      "name": "lotteryIDOwnerMapping",
      "outputs": [
        {
          "internalType": "address",
          "name": "",
          "type": "address"
        }
      ],
      "stateMutability": "view",
      "type": "function"
    },
    {
      "inputs": [
        {
          "internalType": "uint256",
          "name": "",
          "type": "uint256"
        }
      ],
      "name": "lotteryIDStateMapping",
      "outputs": [
        {
          "internalType": "enum LotteryMaker.LotteryState",
          "name": "",
          "type": "uint8"
        }
      ],
      "stateMutability": "view",
      "type": "function"
    },
    {
      "inputs": [
        {
          "internalType": "uint256",
          "name": "",
          "type": "uint256"
        }
      ],
      "name": "lotteryIDToCheckDuration",
      "outputs": [
        {
          "internalType": "uint256",
          "name": "",
          "type": "uint256"
        }
      ],
      "stateMutability": "view",
      "type": "function"
    },
    {
      "inputs": [],
      "name": "owner",
      "outputs": [
        {
          "internalType": "address",
          "name": "",
          "type": "address"
        }
      ],
      "stateMutability": "view",
      "type": "function"
    },
    {
      "inputs": [
        {
          "internalType": "bytes",
          "name": "",
          "type": "bytes"
        }
      ],
      "name": "performUpkeep",
      "outputs": [],
      "stateMutability": "nonpayable",
      "type": "function"
    },
    {
      "inputs": [
        {
          "internalType": "uint256",
          "name": "requestId",
          "type": "uint256"
        },
        {
          "internalType": "uint256[]",
          "name": "randomWords",
          "type": "uint256[]"
        }
      ],
      "name": "rawFulfillRandomWords",
      "outputs": [],
      "stateMutability": "nonpayable",
      "type": "function"
    },
    {
      "inputs": [],
      "name": "renounceOwnership",
      "outputs": [],
      "stateMutability": "nonpayable",
      "type": "function"
    },
    {
      "inputs": [
        {
          "internalType": "uint256",
          "name": "",
          "type": "uint256"
        }
      ],
      "name": "requestIDLotteryIDMapping",
      "outputs": [
        {
          "internalType": "uint256",
          "name": "",
          "type": "uint256"
        }
      ],
      "stateMutability": "view",
      "type": "function"
    },
    {
      "inputs": [
        {
          "internalType": "uint256",
          "name": "lotteryID",
          "type": "uint256"
        }
      ],
      "name": "stopEntrance",
      "outputs": [],
      "stateMutability": "nonpayable",
      "type": "function"
    },
    {
      "inputs": [
        {
          "internalType": "address",
          "name": "newOwner",
          "type": "address"
        }
      ],
      "name": "transferOwnership",
      "outputs": [],
      "stateMutability": "nonpayable",
      "type": "function"
    }
  ],
  "transactionHash": "0xc4fcd948e8f50ee2770b590c3de56061f3663a693e022c89d28d45fe4ac06c88",
  "args": [
    "1000000000000000",
    "0x7a1BaC17Ccc5b313516C5E16fb24f7659aA5ebed",
    "330",
    "0x4b09e658ed251bcafeebbc69400383d49f344ace09b9576fe248bb02c003fe9f"
  ],
  "numDeployments": 1,
  "solcInputHash": "809b2f4ba5b18fd6989cb1dff7f6a2ee",
  "bytecode": "0x60a0604052620186a0600d60006101000a81548163ffffffff021916908363ffffffff1602179055506003600d60046101000a81548161ffff021916908361ffff1602179055506001600d60066101000a81548163ffffffff021916908363ffffffff1602179055503480156200007557600080fd5b506040516200288e3803806200288e83398181016040528101906200009b919062000364565b82620000bc620000b06200017360201b60201c565b6200017b60201b60201c565b8073ffffffffffffffffffffffffffffffffffffffff1660808173ffffffffffffffffffffffffffffffffffffffff16815250505082600b60006101000a81548173ffffffffffffffffffffffffffffffffffffffff021916908373ffffffffffffffffffffffffffffffffffffffff1602179055508360018190555081600b60146101000a81548167ffffffffffffffff021916908367ffffffffffffffff16021790555080600c8190555050505050620003d6565b600033905090565b60008060009054906101000a900473ffffffffffffffffffffffffffffffffffffffff169050816000806101000a81548173ffffffffffffffffffffffffffffffffffffffff021916908373ffffffffffffffffffffffffffffffffffffffff1602179055508173ffffffffffffffffffffffffffffffffffffffff168173ffffffffffffffffffffffffffffffffffffffff167f8be0079c531659141344cd1fd0a4f28419497f9722a3daafe3b4186f6b6457e060405160405180910390a35050565b600080fd5b6000819050919050565b620002598162000244565b81146200026557600080fd5b50565b60008151905062000279816200024e565b92915050565b600073ffffffffffffffffffffffffffffffffffffffff82169050919050565b6000620002ac826200027f565b9050919050565b620002be816200029f565b8114620002ca57600080fd5b50565b600081519050620002de81620002b3565b92915050565b600067ffffffffffffffff82169050919050565b6200030381620002e4565b81146200030f57600080fd5b50565b6000815190506200032381620002f8565b92915050565b6000819050919050565b6200033e8162000329565b81146200034a57600080fd5b50565b6000815190506200035e8162000333565b92915050565b600080600080608085870312156200038157620003806200023f565b5b6000620003918782880162000268565b9450506020620003a487828801620002cd565b9350506040620003b78782880162000312565b9250506060620003ca878288016200034d565b91505092959194509250565b608051612495620003f96000396000818161050e015261056201526124956000f3fe60806040526004361061012a5760003560e01c80638e4acab5116100ab578063da1086a01161006f578063da1086a01461040d578063e1d1033d14610436578063e3c55e4014610452578063e88958dc1461047b578063e8b161ad146104a6578063f2fde38b146104e35761012a565b80638e4acab5146102f05780639ad2acf51461032d5780639bb1e5b614610356578063c154962914610393578063cbc38867146103d05761012a565b806361dad121116100f257806361dad121146102175780636e04ff0d14610254578063715018a6146102925780638da5cb5b146102a95780638dd8c56d146102d45761012a565b80631fe543e31461012f5780631fec3938146101585780632bc5f392146101955780633fd43098146101d25780634585e33b146101ee575b600080fd5b34801561013b57600080fd5b50610156600480360381019061015191906118af565b61050c565b005b34801561016457600080fd5b5061017f600480360381019061017a919061190b565b6105cc565b60405161018c91906119af565b60405180910390f35b3480156101a157600080fd5b506101bc60048036038101906101b7919061190b565b6105ec565b6040516101c991906119d9565b60405180910390f35b6101ec60048036038101906101e7919061190b565b610610565b005b3480156101fa57600080fd5b5061021560048036038101906102109190611a4f565b61079a565b005b34801561022357600080fd5b5061023e6004803603810190610239919061190b565b6108b6565b60405161024b9190611add565b60405180910390f35b34801561026057600080fd5b5061027b60048036038101906102769190611a4f565b6108e9565b604051610289929190611b9b565b60405180910390f35b34801561029e57600080fd5b506102a76109fd565b005b3480156102b557600080fd5b506102be610a85565b6040516102cb9190611add565b60405180910390f35b6102ee60048036038101906102e9919061190b565b610aae565b005b3480156102fc57600080fd5b506103176004803603810190610312919061190b565b610b00565b60405161032491906119d9565b60405180910390f35b34801561033957600080fd5b50610354600480360381019061034f919061190b565b610b18565b005b34801561036257600080fd5b5061037d6004803603810190610378919061190b565b610c7f565b60405161038a91906119d9565b60405180910390f35b34801561039f57600080fd5b506103ba60048036038101906103b5919061190b565b610c97565b6040516103c791906119d9565b60405180910390f35b3480156103dc57600080fd5b506103f760048036038101906103f29190611bcb565b610caf565b6040516104049190611c2c565b60405180910390f35b34801561041957600080fd5b50610434600480360381019061042f919061190b565b610cfd565b005b610450600480360381019061044b9190611bcb565b610fcc565b005b34801561045e57600080fd5b506104796004803603810190610474919061190b565b61106f565b005b34801561048757600080fd5b506104906110f5565b60405161049d91906119d9565b60405180910390f35b3480156104b257600080fd5b506104cd60048036038101906104c8919061190b565b6110fb565b6040516104da91906119d9565b60405180910390f35b3480156104ef57600080fd5b5061050a60048036038101906105059190611c73565b611113565b005b7f000000000000000000000000000000000000000000000000000000000000000073ffffffffffffffffffffffffffffffffffffffff163373ffffffffffffffffffffffffffffffffffffffff16146105be57337f00000000000000000000000000000000000000000000000000000000000000006040517f1cf993f40000000000000000000000000000000000000000000000000000000081526004016105b5929190611ca0565b60405180910390fd5b6105c8828261120a565b5050565b60066020528060005260406000206000915054906101000a900460ff1681565b600581815481106105fc57600080fd5b906000526020600020016000915090505481565b6000600381111561062457610623611938565b5b6006600083815260200190815260200160002060009054906101000a900460ff16600381111561065757610656611938565b5b14610697576040517f08c379a000000000000000000000000000000000000000000000000000000000815260040161068e90611d26565b60405180910390fd5b60036000828152602001908152602001600020543410156106ed576040517f08c379a00000000000000000000000000000000000000000000000000000000081526004016106e490611db8565b60405180910390fd5b34600760008381526020019081526020016000205461070c9190611e07565b600760008381526020019081526020016000208190555060096000828152602001908152602001600020339080600181540180825580915050600190039060005260206000200160009091909190916101000a81548173ffffffffffffffffffffffffffffffffffffffff021916908373ffffffffffffffffffffffffffffffffffffffff16021790555050565b6000600580549050905060005b818110156108b0576000600582815481106107c5576107c4611e5d565b5b906000526020600020015490506000600960008381526020019081526020016000208054905011801561080a5750426004600083815260200190815260200160002054105b801561085a57506000600381111561082557610824611938565b5b6006600083815260200190815260200160002060009054906101000a900460ff16600381111561085857610857611938565b5b145b1561089c5760016006600083815260200190815260200160002060006101000a81548160ff0219169083600381111561089657610895611938565b5b02179055505b5080806108a890611e8c565b9150506107a7565b50505050565b60026020528060005260406000206000915054906101000a900473ffffffffffffffffffffffffffffffffffffffff1681565b60006060600091506000600580549050905060005b818110156109f35760006005828154811061091c5761091b611e5d565b5b9060005260206000200154905084806109b95750600060096000838152602001908152602001600020805490501180156109685750426004600083815260200190815260200160002054105b80156109b857506000600381111561098357610982611938565b5b6006600083815260200190815260200160002060009054906101000a900460ff1660038111156109b6576109b5611938565b5b145b5b945084156109df57600160405180602001604052806000815250945094505050506109f6565b5080806109eb90611e8c565b9150506108fe565b50505b9250929050565b610a05611315565b73ffffffffffffffffffffffffffffffffffffffff16610a23610a85565b73ffffffffffffffffffffffffffffffffffffffff1614610a79576040517f08c379a0000000000000000000000000000000000000000000000000000000008152600401610a7090611f20565b60405180910390fd5b610a83600061131d565b565b60008060009054906101000a900473ffffffffffffffffffffffffffffffffffffffff16905090565b600154341015610af3576040517f08c379a0000000000000000000000000000000000000000000000000000000008152600401610aea90611fb2565b60405180910390fd5b610afc816113e1565b5050565b60076020528060005260406000206000915090505481565b6002600082815260200190815260200160002060009054906101000a900473ffffffffffffffffffffffffffffffffffffffff1673ffffffffffffffffffffffffffffffffffffffff163373ffffffffffffffffffffffffffffffffffffffff1614610bb9576040517f08c379a0000000000000000000000000000000000000000000000000000000008152600401610bb090612044565b60405180910390fd5b60006003811115610bcd57610bcc611938565b5b6006600083815260200190815260200160002060009054906101000a900460ff166003811115610c0057610bff611938565b5b14610c40576040517f08c379a0000000000000000000000000000000000000000000000000000000008152600401610c3790611d26565b60405180910390fd5b60016006600083815260200190815260200160002060006101000a81548160ff02191690836003811115610c7757610c76611938565b5b021790555050565b60046020528060005260406000206000915090505481565b60086020528060005260406000206000915090505481565b60096020528160005260406000208181548110610ccb57600080fd5b906000526020600020016000915091509054906101000a900473ffffffffffffffffffffffffffffffffffffffff1681565b6002600082815260200190815260200160002060009054906101000a900473ffffffffffffffffffffffffffffffffffffffff1673ffffffffffffffffffffffffffffffffffffffff163373ffffffffffffffffffffffffffffffffffffffff1614610d9e576040517f08c379a0000000000000000000000000000000000000000000000000000000008152600401610d95906120d6565b60405180910390fd5b60016003811115610db257610db1611938565b5b6006600083815260200190815260200160002060009054906101000a900460ff166003811115610de557610de4611938565b5b14610e25576040517f08c379a0000000000000000000000000000000000000000000000000000000008152600401610e1c90612142565b60405180910390fd5b6000600960008381526020019081526020016000208054905011610e7e576040517f08c379a0000000000000000000000000000000000000000000000000000000008152600401610e75906121ae565b60405180910390fd5b60026006600083815260200190815260200160002060006101000a81548160ff02191690836003811115610eb557610eb4611938565b5b02179055506000600b60009054906101000a900473ffffffffffffffffffffffffffffffffffffffff1673ffffffffffffffffffffffffffffffffffffffff16635d3b1d30600c54600b60149054906101000a900467ffffffffffffffff16600d60049054906101000a900461ffff16600d60009054906101000a900463ffffffff16600d60069054906101000a900463ffffffff166040518663ffffffff1660e01b8152600401610f6b959493929190612246565b6020604051808303816000875af1158015610f8a573d6000803e3d6000fd5b505050506040513d601f19601f82011682018060405250810190610fae91906122ae565b90508160086000838152602001908152602001600020819055505050565b600154341015611011576040517f08c379a000000000000000000000000000000000000000000000000000000000815260040161100890611fb2565b60405180910390fd5b600061101c836113e1565b9050814261102a9190611e07565b60046000838152602001908152602001600020819055506005819080600181540180825580915050600190039060005260206000200160009091909190915055505050565b611077611315565b73ffffffffffffffffffffffffffffffffffffffff16611095610a85565b73ffffffffffffffffffffffffffffffffffffffff16146110eb576040517f08c379a00000000000000000000000000000000000000000000000000000000081526004016110e290611f20565b60405180910390fd5b8060018190555050565b60015481565b60036020528060005260406000206000915090505481565b61111b611315565b73ffffffffffffffffffffffffffffffffffffffff16611139610a85565b73ffffffffffffffffffffffffffffffffffffffff161461118f576040517f08c379a000000000000000000000000000000000000000000000000000000000815260040161118690611f20565b60405180910390fd5b600073ffffffffffffffffffffffffffffffffffffffff168173ffffffffffffffffffffffffffffffffffffffff16036111fe576040517f08c379a00000000000000000000000000000000000000000000000000000000081526004016111f59061234d565b60405180910390fd5b6112078161131d565b50565b6000600860008481526020019081526020016000205490506000600960008381526020019081526020016000208054806020026020016040519081016040528092919081815260200182805480156112b757602002820191906000526020600020905b8160009054906101000a900473ffffffffffffffffffffffffffffffffffffffff1673ffffffffffffffffffffffffffffffffffffffff168152602001906001019080831161126d575b5050505050905060008151846000815181106112d6576112d5611e5d565b5b60200260200101516112e8919061239c565b905061130e8383838151811061130157611300611e5d565b5b6020026020010151611507565b5050505050565b600033905090565b60008060009054906101000a900473ffffffffffffffffffffffffffffffffffffffff169050816000806101000a81548173ffffffffffffffffffffffffffffffffffffffff021916908373ffffffffffffffffffffffffffffffffffffffff1602179055508173ffffffffffffffffffffffffffffffffffffffff168173ffffffffffffffffffffffffffffffffffffffff167f8be0079c531659141344cd1fd0a4f28419497f9722a3daafe3b4186f6b6457e060405160405180910390a35050565b60006113ed600a6116aa565b60006113f9600a6116c0565b905082600360008381526020019081526020016000208190555060006006600083815260200190815260200160002060006101000a81548160ff0219169083600381111561144a57611449611938565b5b021790555060006007600083815260200190815260200160002081905550336002600083815260200190815260200160002060006101000a81548173ffffffffffffffffffffffffffffffffffffffff021916908373ffffffffffffffffffffffffffffffffffffffff160217905550803373ffffffffffffffffffffffffffffffffffffffff167fe03d61f742c11525b3c0d7993f45fbf687ef314840bc5afa547d6d74f40cabb660405160405180910390a380915050919050565b6002600381111561151b5761151a611938565b5b6006600084815260200190815260200160002060009054906101000a900460ff16600381111561154e5761154d611938565b5b1461158e576040517f08c379a00000000000000000000000000000000000000000000000000000000081526004016115859061243f565b60405180910390fd5b60036006600084815260200190815260200160002060006101000a81548160ff021916908360038111156115c5576115c4611938565b5b0217905550600060076000848152602001908152602001600020549050600060076000858152602001908152602001600020819055508173ffffffffffffffffffffffffffffffffffffffff166108fc829081150290604051600060405180830381858888f19350505050158015611641573d6000803e3d6000fd5b5060096000848152602001908152602001600020600061166191906116ce565b828273ffffffffffffffffffffffffffffffffffffffff167f86c3a6c2352953d57d108043736969ee0d4faa042ee18d6251fd5b580ed0cdbe60405160405180910390a3505050565b6001816000016000828254019250508190555050565b600081600001549050919050565b50805460008255906000526020600020908101906116ec91906116ef565b50565b5b808211156117085760008160009055506001016116f0565b5090565b6000604051905090565b600080fd5b600080fd5b6000819050919050565b61173381611720565b811461173e57600080fd5b50565b6000813590506117508161172a565b92915050565b600080fd5b6000601f19601f8301169050919050565b7f4e487b7100000000000000000000000000000000000000000000000000000000600052604160045260246000fd5b6117a48261175b565b810181811067ffffffffffffffff821117156117c3576117c261176c565b5b80604052505050565b60006117d661170c565b90506117e2828261179b565b919050565b600067ffffffffffffffff8211156118025761180161176c565b5b602082029050602081019050919050565b600080fd5b600061182b611826846117e7565b6117cc565b9050808382526020820190506020840283018581111561184e5761184d611813565b5b835b8181101561187757806118638882611741565b845260208401935050602081019050611850565b5050509392505050565b600082601f83011261189657611895611756565b5b81356118a6848260208601611818565b91505092915050565b600080604083850312156118c6576118c5611716565b5b60006118d485828601611741565b925050602083013567ffffffffffffffff8111156118f5576118f461171b565b5b61190185828601611881565b9150509250929050565b60006020828403121561192157611920611716565b5b600061192f84828501611741565b91505092915050565b7f4e487b7100000000000000000000000000000000000000000000000000000000600052602160045260246000fd5b6004811061197857611977611938565b5b50565b600081905061198982611967565b919050565b60006119998261197b565b9050919050565b6119a98161198e565b82525050565b60006020820190506119c460008301846119a0565b92915050565b6119d381611720565b82525050565b60006020820190506119ee60008301846119ca565b92915050565b600080fd5b60008083601f840112611a0f57611a0e611756565b5b8235905067ffffffffffffffff811115611a2c57611a2b6119f4565b5b602083019150836001820283011115611a4857611a47611813565b5b9250929050565b60008060208385031215611a6657611a65611716565b5b600083013567ffffffffffffffff811115611a8457611a8361171b565b5b611a90858286016119f9565b92509250509250929050565b600073ffffffffffffffffffffffffffffffffffffffff82169050919050565b6000611ac782611a9c565b9050919050565b611ad781611abc565b82525050565b6000602082019050611af26000830184611ace565b92915050565b60008115159050919050565b611b0d81611af8565b82525050565b600081519050919050565b600082825260208201905092915050565b60005b83811015611b4d578082015181840152602081019050611b32565b83811115611b5c576000848401525b50505050565b6000611b6d82611b13565b611b778185611b1e565b9350611b87818560208601611b2f565b611b908161175b565b840191505092915050565b6000604082019050611bb06000830185611b04565b8181036020830152611bc28184611b62565b90509392505050565b60008060408385031215611be257611be1611716565b5b6000611bf085828601611741565b9250506020611c0185828601611741565b9150509250929050565b6000611c1682611a9c565b9050919050565b611c2681611c0b565b82525050565b6000602082019050611c416000830184611c1d565b92915050565b611c5081611abc565b8114611c5b57600080fd5b50565b600081359050611c6d81611c47565b92915050565b600060208284031215611c8957611c88611716565b5b6000611c9784828501611c5e565b91505092915050565b6000604082019050611cb56000830185611ace565b611cc26020830184611ace565b9392505050565b600082825260208201905092915050565b7f536f7272792c206c6f7474657279206973206e6f74206f70656e000000000000600082015250565b6000611d10601a83611cc9565b9150611d1b82611cda565b602082019050919050565b60006020820190508181036000830152611d3f81611d03565b9050919050565b7f4e6f7420656e6f7567682045544820746f20656e74657220746865206c6f747460008201527f6572790000000000000000000000000000000000000000000000000000000000602082015250565b6000611da2602383611cc9565b9150611dad82611d46565b604082019050919050565b60006020820190508181036000830152611dd181611d95565b9050919050565b7f4e487b7100000000000000000000000000000000000000000000000000000000600052601160045260246000fd5b6000611e1282611720565b9150611e1d83611720565b9250827fffffffffffffffffffffffffffffffffffffffffffffffffffffffffffffffff03821115611e5257611e51611dd8565b5b828201905092915050565b7f4e487b7100000000000000000000000000000000000000000000000000000000600052603260045260246000fd5b6000611e9782611720565b91507fffffffffffffffffffffffffffffffffffffffffffffffffffffffffffffffff8203611ec957611ec8611dd8565b5b600182019050919050565b7f4f776e61626c653a2063616c6c6572206973206e6f7420746865206f776e6572600082015250565b6000611f0a602083611cc9565b9150611f1582611ed4565b602082019050919050565b60006020820190508181036000830152611f3981611efd565b9050919050565b7f4e6f7420656e6f7567682045544820746f206372656174652061206c6f74746560008201527f7279000000000000000000000000000000000000000000000000000000000000602082015250565b6000611f9c602283611cc9565b9150611fa782611f40565b604082019050919050565b60006020820190508181036000830152611fcb81611f8f565b9050919050565b7f4f6e6c792063726561746f72206f6620746865206c6f74746572792063616e2060008201527f73746f702074686520656e7472616e6365730000000000000000000000000000602082015250565b600061202e603283611cc9565b915061203982611fd2565b604082019050919050565b6000602082019050818103600083015261205d81612021565b9050919050565b7f4f6e6c792063726561746f72206f6620746865204c6f74746572792063616e2060008201527f63616c63756c6174652077696e6e657273000000000000000000000000000000602082015250565b60006120c0603183611cc9565b91506120cb82612064565b604082019050919050565b600060208201905081810360008301526120ef816120b3565b9050919050565b7f536f7272792c206c6f7474657279206973206e6f742073746f70706564000000600082015250565b600061212c601d83611cc9565b9150612137826120f6565b602082019050919050565b6000602082019050818103600083015261215b8161211f565b9050919050565b7f4e6f20656e7472616e6365730000000000000000000000000000000000000000600082015250565b6000612198600c83611cc9565b91506121a382612162565b602082019050919050565b600060208201905081810360008301526121c78161218b565b9050919050565b6000819050919050565b6121e1816121ce565b82525050565b600067ffffffffffffffff82169050919050565b612204816121e7565b82525050565b600061ffff82169050919050565b6122218161220a565b82525050565b600063ffffffff82169050919050565b61224081612227565b82525050565b600060a08201905061225b60008301886121d8565b61226860208301876121fb565b6122756040830186612218565b6122826060830185612237565b61228f6080830184612237565b9695505050505050565b6000815190506122a88161172a565b92915050565b6000602082840312156122c4576122c3611716565b5b60006122d284828501612299565b91505092915050565b7f4f776e61626c653a206e6577206f776e657220697320746865207a65726f206160008201527f6464726573730000000000000000000000000000000000000000000000000000602082015250565b6000612337602683611cc9565b9150612342826122db565b604082019050919050565b600060208201905081810360008301526123668161232a565b9050919050565b7f4e487b7100000000000000000000000000000000000000000000000000000000600052601260045260246000fd5b60006123a782611720565b91506123b283611720565b9250826123c2576123c161236d565b5b828206905092915050565b7f536f7272792c206c6f7474657279206973206e6f7420696e2043616c63756c6160008201527f74696e6720737461746500000000000000000000000000000000000000000000602082015250565b6000612429602a83611cc9565b9150612434826123cd565b604082019050919050565b600060208201905081810360008301526124588161241c565b905091905056fea26469706673582212205627a921955f9594940e6c9b5275f13531dae8c5e5845abcda9e223197d3fbcc64736f6c634300080d0033",
  "devdoc": {
    "kind": "dev",
    "methods": {
      "owner()": {
        "details": "Returns the address of the current owner."
      },
      "renounceOwnership()": {
        "details": "Leaves the contract without owner. It will not be possible to call `onlyOwner` functions anymore. Can only be called by the current owner. NOTE: Renouncing ownership will leave the contract without an owner, thereby removing any functionality that is only available to the owner."
      },
      "transferOwnership(address)": {
        "details": "Transfers ownership of the contract to a new account (`newOwner`). Can only be called by the current owner."
      }
    },
    "version": 1
  },
  "userdoc": {
    "kind": "user",
    "methods": {},
    "version": 1
  },
  "storageLayout": {
    "storage": [
      {
        "astId": 212,
        "contract": "contracts/LotteryMaker.sol:LotteryMaker",
        "label": "_owner",
        "offset": 0,
        "slot": "0",
        "type": "t_address"
      },
      {
        "astId": 441,
        "contract": "contracts/LotteryMaker.sol:LotteryMaker",
        "label": "creatorFee",
        "offset": 0,
        "slot": "1",
        "type": "t_uint256"
      },
      {
        "astId": 445,
        "contract": "contracts/LotteryMaker.sol:LotteryMaker",
        "label": "lotteryIDOwnerMapping",
        "offset": 0,
        "slot": "2",
        "type": "t_mapping(t_uint256,t_address)"
      },
      {
        "astId": 449,
        "contract": "contracts/LotteryMaker.sol:LotteryMaker",
        "label": "lotteryIDFeeMapping",
        "offset": 0,
        "slot": "3",
        "type": "t_mapping(t_uint256,t_uint256)"
      },
      {
        "astId": 453,
        "contract": "contracts/LotteryMaker.sol:LotteryMaker",
        "label": "lotteryIDEndtimeMapping",
        "offset": 0,
        "slot": "4",
        "type": "t_mapping(t_uint256,t_uint256)"
      },
      {
        "astId": 456,
        "contract": "contracts/LotteryMaker.sol:LotteryMaker",
        "label": "lotteryIDToCheckDuration",
        "offset": 0,
        "slot": "5",
        "type": "t_array(t_uint256)dyn_storage"
      },
      {
        "astId": 461,
        "contract": "contracts/LotteryMaker.sol:LotteryMaker",
        "label": "lotteryIDStateMapping",
        "offset": 0,
        "slot": "6",
        "type": "t_mapping(t_uint256,t_enum(LotteryState)427)"
      },
      {
        "astId": 465,
        "contract": "contracts/LotteryMaker.sol:LotteryMaker",
        "label": "lotteryIDBalanceMapping",
        "offset": 0,
        "slot": "7",
        "type": "t_mapping(t_uint256,t_uint256)"
      },
      {
        "astId": 469,
        "contract": "contracts/LotteryMaker.sol:LotteryMaker",
        "label": "requestIDLotteryIDMapping",
        "offset": 0,
        "slot": "8",
        "type": "t_mapping(t_uint256,t_uint256)"
      },
      {
        "astId": 474,
        "contract": "contracts/LotteryMaker.sol:LotteryMaker",
        "label": "lotteryIDEntrancesMapping",
        "offset": 0,
        "slot": "9",
        "type": "t_mapping(t_uint256,t_array(t_address_payable)dyn_storage)"
      },
      {
        "astId": 477,
        "contract": "contracts/LotteryMaker.sol:LotteryMaker",
        "label": "lotteryIDCounter",
        "offset": 0,
        "slot": "10",
        "type": "t_struct(Counter)337_storage"
      },
      {
        "astId": 480,
        "contract": "contracts/LotteryMaker.sol:LotteryMaker",
        "label": "COORDINATOR",
        "offset": 0,
        "slot": "11",
        "type": "t_contract(VRFCoordinatorV2Interface)204"
      },
      {
        "astId": 482,
        "contract": "contracts/LotteryMaker.sol:LotteryMaker",
        "label": "s_subscriptionId",
        "offset": 20,
        "slot": "11",
        "type": "t_uint64"
      },
      {
        "astId": 484,
        "contract": "contracts/LotteryMaker.sol:LotteryMaker",
        "label": "keyHash",
        "offset": 0,
        "slot": "12",
        "type": "t_bytes32"
      },
      {
        "astId": 487,
        "contract": "contracts/LotteryMaker.sol:LotteryMaker",
        "label": "callbackGasLimit",
        "offset": 0,
        "slot": "13",
        "type": "t_uint32"
      },
      {
        "astId": 490,
        "contract": "contracts/LotteryMaker.sol:LotteryMaker",
        "label": "requestConfirmations",
        "offset": 4,
        "slot": "13",
        "type": "t_uint16"
      },
      {
        "astId": 493,
        "contract": "contracts/LotteryMaker.sol:LotteryMaker",
        "label": "numWords",
        "offset": 6,
        "slot": "13",
        "type": "t_uint32"
      }
    ],
    "types": {
      "t_address": {
        "encoding": "inplace",
        "label": "address",
        "numberOfBytes": "20"
      },
      "t_address_payable": {
        "encoding": "inplace",
        "label": "address payable",
        "numberOfBytes": "20"
      },
      "t_array(t_address_payable)dyn_storage": {
        "base": "t_address_payable",
        "encoding": "dynamic_array",
        "label": "address payable[]",
        "numberOfBytes": "32"
      },
      "t_array(t_uint256)dyn_storage": {
        "base": "t_uint256",
        "encoding": "dynamic_array",
        "label": "uint256[]",
        "numberOfBytes": "32"
      },
      "t_bytes32": {
        "encoding": "inplace",
        "label": "bytes32",
        "numberOfBytes": "32"
      },
      "t_contract(VRFCoordinatorV2Interface)204": {
        "encoding": "inplace",
        "label": "contract VRFCoordinatorV2Interface",
        "numberOfBytes": "20"
      },
      "t_enum(LotteryState)427": {
        "encoding": "inplace",
        "label": "enum LotteryMaker.LotteryState",
        "numberOfBytes": "1"
      },
      "t_mapping(t_uint256,t_address)": {
        "encoding": "mapping",
        "key": "t_uint256",
        "label": "mapping(uint256 => address)",
        "numberOfBytes": "32",
        "value": "t_address"
      },
      "t_mapping(t_uint256,t_array(t_address_payable)dyn_storage)": {
        "encoding": "mapping",
        "key": "t_uint256",
        "label": "mapping(uint256 => address payable[])",
        "numberOfBytes": "32",
        "value": "t_array(t_address_payable)dyn_storage"
      },
      "t_mapping(t_uint256,t_enum(LotteryState)427)": {
        "encoding": "mapping",
        "key": "t_uint256",
        "label": "mapping(uint256 => enum LotteryMaker.LotteryState)",
        "numberOfBytes": "32",
        "value": "t_enum(LotteryState)427"
      },
      "t_mapping(t_uint256,t_uint256)": {
        "encoding": "mapping",
        "key": "t_uint256",
        "label": "mapping(uint256 => uint256)",
        "numberOfBytes": "32",
        "value": "t_uint256"
      },
      "t_struct(Counter)337_storage": {
        "encoding": "inplace",
        "label": "struct Counters.Counter",
        "members": [
          {
            "astId": 336,
            "contract": "contracts/LotteryMaker.sol:LotteryMaker",
            "label": "_value",
            "offset": 0,
            "slot": "0",
            "type": "t_uint256"
          }
        ],
        "numberOfBytes": "32"
      },
      "t_uint16": {
        "encoding": "inplace",
        "label": "uint16",
        "numberOfBytes": "2"
      },
      "t_uint256": {
        "encoding": "inplace",
        "label": "uint256",
        "numberOfBytes": "32"
      },
      "t_uint32": {
        "encoding": "inplace",
        "label": "uint32",
        "numberOfBytes": "4"
      },
      "t_uint64": {
        "encoding": "inplace",
        "label": "uint64",
        "numberOfBytes": "8"
      }
    }
  }
}