{
  "address": "0x591897Fb780690cF263CdeaFFFA68F6dF5cb000b",
  "abi": [
    {
      "inputs": [
        {
          "internalType": "uint256",
          "name": "_creatorFee",
          "type": "uint256"
        },
        {
          "internalType": "address",
          "name": "_vrfCoordinator",
          "type": "address"
        },
        {
          "internalType": "uint64",
          "name": "_subscriptionId",
          "type": "uint64"
        },
        {
          "internalType": "bytes32",
          "name": "_keyHash",
          "type": "bytes32"
        }
      ],
      "stateMutability": "nonpayable",
      "type": "constructor"
    },
    {
      "inputs": [
        {
          "internalType": "address",
          "name": "have",
          "type": "address"
        },
        {
          "internalType": "address",
          "name": "want",
          "type": "address"
        }
      ],
      "name": "OnlyCoordinatorCanFulfill",
      "type": "error"
    },
    {
      "anonymous": false,
      "inputs": [
        {
          "indexed": true,
          "internalType": "address",
          "name": "owner",
          "type": "address"
        },
        {
          "indexed": true,
          "internalType": "uint256",
          "name": "lotteryID",
          "type": "uint256"
        }
      ],
      "name": "LotteryCreatedEvent",
      "type": "event"
    },
    {
      "anonymous": false,
      "inputs": [
        {
          "indexed": true,
          "internalType": "address",
          "name": "previousOwner",
          "type": "address"
        },
        {
          "indexed": true,
          "internalType": "address",
          "name": "newOwner",
          "type": "address"
        }
      ],
      "name": "OwnershipTransferred",
      "type": "event"
    },
    {
      "inputs": [
        {
          "internalType": "uint256",
          "name": "lotteryID",
          "type": "uint256"
        }
      ],
      "name": "calculateWinner",
      "outputs": [],
      "stateMutability": "nonpayable",
      "type": "function"
    },
    {
      "inputs": [
        {
          "internalType": "uint256",
          "name": "_newFee",
          "type": "uint256"
        }
      ],
      "name": "changeCreatorFee",
      "outputs": [],
      "stateMutability": "nonpayable",
      "type": "function"
    },
    {
      "inputs": [
        {
          "internalType": "uint256",
          "name": "entranceFee",
          "type": "uint256"
        }
      ],
      "name": "createLottery",
      "outputs": [],
      "stateMutability": "payable",
      "type": "function"
    },
    {
      "inputs": [],
      "name": "creatorFee",
      "outputs": [
        {
          "internalType": "uint256",
          "name": "",
          "type": "uint256"
        }
      ],
      "stateMutability": "view",
      "type": "function"
    },
    {
      "inputs": [
        {
          "internalType": "uint256",
          "name": "lotteryID",
          "type": "uint256"
        }
      ],
      "name": "enterLottery",
      "outputs": [],
      "stateMutability": "payable",
      "type": "function"
    },
    {
      "inputs": [
        {
          "internalType": "uint256",
          "name": "",
          "type": "uint256"
        }
      ],
      "name": "lotteryIDBalanceMapping",
      "outputs": [
        {
          "internalType": "uint256",
          "name": "",
          "type": "uint256"
        }
      ],
      "stateMutability": "view",
      "type": "function"
    },
    {
      "inputs": [
        {
          "internalType": "uint256",
          "name": "",
          "type": "uint256"
        }
      ],
      "name": "lotteryIDDurationMapping",
      "outputs": [
        {
          "internalType": "uint256",
          "name": "",
          "type": "uint256"
        }
      ],
      "stateMutability": "view",
      "type": "function"
    },
    {
      "inputs": [
        {
          "internalType": "uint256",
          "name": "",
          "type": "uint256"
        },
        {
          "internalType": "uint256",
          "name": "",
          "type": "uint256"
        }
      ],
      "name": "lotteryIDEntrancesMapping",
      "outputs": [
        {
          "internalType": "address payable",
          "name": "",
          "type": "address"
        }
      ],
      "stateMutability": "view",
      "type": "function"
    },
    {
      "inputs": [
        {
          "internalType": "uint256",
          "name": "",
          "type": "uint256"
        }
      ],
      "name": "lotteryIDFeeMapping",
      "outputs": [
        {
          "internalType": "uint256",
          "name": "",
          "type": "uint256"
        }
      ],
      "stateMutability": "view",
      "type": "function"
    },
    {
      "inputs": [
        {
          "internalType": "uint256",
          "name": "",
          "type": "uint256"
        }
      ],
      "name": "lotteryIDStateMapping",
      "outputs": [
        {
          "internalType": "enum LotteryMaker.LotteryState",
          "name": "",
          "type": "uint8"
        }
      ],
      "stateMutability": "view",
      "type": "function"
    },
    {
      "inputs": [],
      "name": "owner",
      "outputs": [
        {
          "internalType": "address",
          "name": "",
          "type": "address"
        }
      ],
      "stateMutability": "view",
      "type": "function"
    },
    {
      "inputs": [
        {
          "internalType": "address",
          "name": "",
          "type": "address"
        },
        {
          "internalType": "uint256",
          "name": "",
          "type": "uint256"
        }
      ],
      "name": "ownerLotteryIDMapping",
      "outputs": [
        {
          "internalType": "uint256",
          "name": "",
          "type": "uint256"
        }
      ],
      "stateMutability": "view",
      "type": "function"
    },
    {
      "inputs": [
        {
          "internalType": "uint256",
          "name": "requestId",
          "type": "uint256"
        },
        {
          "internalType": "uint256[]",
          "name": "randomWords",
          "type": "uint256[]"
        }
      ],
      "name": "rawFulfillRandomWords",
      "outputs": [],
      "stateMutability": "nonpayable",
      "type": "function"
    },
    {
      "inputs": [],
      "name": "renounceOwnership",
      "outputs": [],
      "stateMutability": "nonpayable",
      "type": "function"
    },
    {
      "inputs": [
        {
          "internalType": "uint256",
          "name": "",
          "type": "uint256"
        }
      ],
      "name": "requestIDLotteryIDMapping",
      "outputs": [
        {
          "internalType": "uint256",
          "name": "",
          "type": "uint256"
        }
      ],
      "stateMutability": "view",
      "type": "function"
    },
    {
      "inputs": [
        {
          "internalType": "uint256",
          "name": "lotteryID",
          "type": "uint256"
        }
      ],
      "name": "stopEntrance",
      "outputs": [],
      "stateMutability": "nonpayable",
      "type": "function"
    },
    {
      "inputs": [
        {
          "internalType": "address",
          "name": "newOwner",
          "type": "address"
        }
      ],
      "name": "transferOwnership",
      "outputs": [],
      "stateMutability": "nonpayable",
      "type": "function"
    }
  ],
  "transactionHash": "0xb0e9709c5505b8ac84bcf7b4d96d9455c6ba6e3e26f42c65b7aeb5c77c91582d",
  "args": [
    "1000000000000000",
    "0x6168499c0cFfCaCD319c818142124B7A15E857ab",
    "4307",
    "0xd89b2bf150e3b9e13446986e571fb9cab24b13cea0a43ea20a6049a85cc807cc"
  ],
  "numDeployments": 4,
  "solcInputHash": "b119391832e0905e0cda514ac4443788",
  "bytecode": "0x60a0604052620186a0600c60006101000a81548163ffffffff021916908363ffffffff1602179055506003600c60046101000a81548161ffff021916908361ffff1602179055506001600c60066101000a81548163ffffffff021916908363ffffffff1602179055503480156200007557600080fd5b50604051620025473803806200254783398181016040528101906200009b91906200029e565b82620000bc620000b06200017660201b60201c565b6200017e60201b60201c565b8073ffffffffffffffffffffffffffffffffffffffff1660808173ffffffffffffffffffffffffffffffffffffffff1660601b815250505082600a60006101000a81548173ffffffffffffffffffffffffffffffffffffffff021916908373ffffffffffffffffffffffffffffffffffffffff1602179055508360018190555081600a60146101000a81548167ffffffffffffffff021916908367ffffffffffffffff16021790555080600b8190555050505050620003ce565b600033905090565b60008060009054906101000a900473ffffffffffffffffffffffffffffffffffffffff169050816000806101000a81548173ffffffffffffffffffffffffffffffffffffffff021916908373ffffffffffffffffffffffffffffffffffffffff1602179055508173ffffffffffffffffffffffffffffffffffffffff168173ffffffffffffffffffffffffffffffffffffffff167f8be0079c531659141344cd1fd0a4f28419497f9722a3daafe3b4186f6b6457e060405160405180910390a35050565b600081519050620002538162000366565b92915050565b6000815190506200026a8162000380565b92915050565b60008151905062000281816200039a565b92915050565b6000815190506200029881620003b4565b92915050565b60008060008060808587031215620002b557600080fd5b6000620002c58782880162000270565b9450506020620002d88782880162000242565b9350506040620002eb8782880162000287565b9250506060620002fe8782880162000259565b91505092959194509250565b6000620003178262000328565b9050919050565b6000819050919050565b600073ffffffffffffffffffffffffffffffffffffffff82169050919050565b6000819050919050565b600067ffffffffffffffff82169050919050565b62000371816200030a565b81146200037d57600080fd5b50565b6200038b816200031e565b81146200039757600080fd5b50565b620003a58162000348565b8114620003b157600080fd5b50565b620003bf8162000352565b8114620003cb57600080fd5b50565b60805160601c612153620003f460003960008181610422015261047601526121536000f3fe6080604052600436106100fe5760003560e01c8063c154962911610095578063deca81f211610064578063deca81f214610329578063e3c55e4014610366578063e88958dc1461038f578063e8b161ad146103ba578063f2fde38b146103f7576100fe565b8063c154962914610249578063cbc3886714610286578063d31c9045146102c3578063da1086a014610300576100fe565b80638da5cb5b116100d15780638da5cb5b1461019c5780638dd8c56d146101c75780638e4acab5146101e35780639ad2acf514610220576100fe565b80631fe543e3146101035780631fec39381461012c5780633fd4309814610169578063715018a614610185575b600080fd5b34801561010f57600080fd5b5061012a600480360381019061012591906116f0565b610420565b005b34801561013857600080fd5b50610153600480360381019061014e919061169e565b6104e0565b6040516101609190611a08565b60405180910390f35b610183600480360381019061017e919061169e565b610500565b005b34801561019157600080fd5b5061019a6106d6565b005b3480156101a857600080fd5b506101b161075e565b6040516101be9190611956565b60405180910390f35b6101e160048036038101906101dc919061169e565b610787565b005b3480156101ef57600080fd5b5061020a6004803603810190610205919061169e565b610925565b6040516102179190611b63565b60405180910390f35b34801561022c57600080fd5b506102476004803603810190610242919061169e565b61093d565b005b34801561025557600080fd5b50610270600480360381019061026b919061169e565b610abd565b60405161027d9190611b63565b60405180910390f35b34801561029257600080fd5b506102ad60048036038101906102a89190611744565b610ad5565b6040516102ba9190611971565b60405180910390f35b3480156102cf57600080fd5b506102ea60048036038101906102e59190611662565b610b23565b6040516102f79190611b63565b60405180910390f35b34801561030c57600080fd5b506103276004803603810190610322919061169e565b610b54565b005b34801561033557600080fd5b50610350600480360381019061034b919061169e565b610e4b565b60405161035d9190611b63565b60405180910390f35b34801561037257600080fd5b5061038d6004803603810190610388919061169e565b610e63565b005b34801561039b57600080fd5b506103a4610ee9565b6040516103b19190611b63565b60405180910390f35b3480156103c657600080fd5b506103e160048036038101906103dc919061169e565b610eef565b6040516103ee9190611b63565b60405180910390f35b34801561040357600080fd5b5061041e60048036038101906104199190611639565b610f07565b005b7f000000000000000000000000000000000000000000000000000000000000000073ffffffffffffffffffffffffffffffffffffffff163373ffffffffffffffffffffffffffffffffffffffff16146104d257337f00000000000000000000000000000000000000000000000000000000000000006040517f1cf993f40000000000000000000000000000000000000000000000000000000081526004016104c992919061198c565b60405180910390fd5b6104dc8282610fff565b5050565b60056020528060005260406000206000915054906101000a900460ff1681565b6000600381111561053a577f4e487b7100000000000000000000000000000000000000000000000000000000600052602160045260246000fd5b6005600083815260200190815260200160002060009054906101000a900460ff166003811115610593577f4e487b7100000000000000000000000000000000000000000000000000000000600052602160045260246000fd5b146105d3576040517f08c379a00000000000000000000000000000000000000000000000000000000081526004016105ca90611a63565b60405180910390fd5b6003600082815260200190815260200160002054341015610629576040517f08c379a000000000000000000000000000000000000000000000000000000000815260040161062090611ae3565b60405180910390fd5b3460066000838152602001908152602001600020546106489190611be0565b600660008381526020019081526020016000208190555060086000828152602001908152602001600020339080600181540180825580915050600190039060005260206000200160009091909190916101000a81548173ffffffffffffffffffffffffffffffffffffffff021916908373ffffffffffffffffffffffffffffffffffffffff16021790555050565b6106de611156565b73ffffffffffffffffffffffffffffffffffffffff166106fc61075e565b73ffffffffffffffffffffffffffffffffffffffff1614610752576040517f08c379a000000000000000000000000000000000000000000000000000000000815260040161074990611ac3565b60405180910390fd5b61075c600061115e565b565b60008060009054906101000a900473ffffffffffffffffffffffffffffffffffffffff16905090565b6001543410156107cc576040517f08c379a00000000000000000000000000000000000000000000000000000000081526004016107c390611b43565b60405180910390fd5b6107d66009611222565b60006107e26009611238565b9050600260003373ffffffffffffffffffffffffffffffffffffffff1673ffffffffffffffffffffffffffffffffffffffff16815260200190815260200160002081908060018154018082558091505060019003906000526020600020016000909190919091505581600360008381526020019081526020016000208190555060006005600083815260200190815260200160002060006101000a81548160ff021916908360038111156108bf577f4e487b7100000000000000000000000000000000000000000000000000000000600052602160045260246000fd5b021790555060006006600083815260200190815260200160002081905550803373ffffffffffffffffffffffffffffffffffffffff167fe03d61f742c11525b3c0d7993f45fbf687ef314840bc5afa547d6d74f40cabb660405160405180910390a35050565b60066020528060005260406000206000915090505481565b61094681611246565b610985576040517f08c379a000000000000000000000000000000000000000000000000000000000815260040161097c90611b03565b60405180910390fd5b600060038111156109bf577f4e487b7100000000000000000000000000000000000000000000000000000000600052602160045260246000fd5b6005600083815260200190815260200160002060009054906101000a900460ff166003811115610a18577f4e487b7100000000000000000000000000000000000000000000000000000000600052602160045260246000fd5b14610a58576040517f08c379a0000000000000000000000000000000000000000000000000000000008152600401610a4f90611a63565b60405180910390fd5b60016005600083815260200190815260200160002060006101000a81548160ff02191690836003811115610ab5577f4e487b7100000000000000000000000000000000000000000000000000000000600052602160045260246000fd5b021790555050565b60076020528060005260406000206000915090505481565b60086020528160005260406000208181548110610af157600080fd5b906000526020600020016000915091509054906101000a900473ffffffffffffffffffffffffffffffffffffffff1681565b60026020528160005260406000208181548110610b3f57600080fd5b90600052602060002001600091509150505481565b610b5d81611246565b610b9c576040517f08c379a0000000000000000000000000000000000000000000000000000000008152600401610b9390611a43565b60405180910390fd5b60016003811115610bd6577f4e487b7100000000000000000000000000000000000000000000000000000000600052602160045260246000fd5b6005600083815260200190815260200160002060009054906101000a900460ff166003811115610c2f577f4e487b7100000000000000000000000000000000000000000000000000000000600052602160045260246000fd5b14610c6f576040517f08c379a0000000000000000000000000000000000000000000000000000000008152600401610c6690611aa3565b60405180910390fd5b6000600860008381526020019081526020016000208054905011610cc8576040517f08c379a0000000000000000000000000000000000000000000000000000000008152600401610cbf90611a83565b60405180910390fd5b60026005600083815260200190815260200160002060006101000a81548160ff02191690836003811115610d25577f4e487b7100000000000000000000000000000000000000000000000000000000600052602160045260246000fd5b02179055506000600a60009054906101000a900473ffffffffffffffffffffffffffffffffffffffff1673ffffffffffffffffffffffffffffffffffffffff16635d3b1d30600b54600a60149054906101000a900467ffffffffffffffff16600c60049054906101000a900461ffff16600c60009054906101000a900463ffffffff16600c60069054906101000a900463ffffffff166040518663ffffffff1660e01b8152600401610ddb9594939291906119b5565b602060405180830381600087803b158015610df557600080fd5b505af1158015610e09573d6000803e3d6000fd5b505050506040513d601f19601f82011682018060405250810190610e2d91906116c7565b90508160076000838152602001908152602001600020819055505050565b60046020528060005260406000206000915090505481565b610e6b611156565b73ffffffffffffffffffffffffffffffffffffffff16610e8961075e565b73ffffffffffffffffffffffffffffffffffffffff1614610edf576040517f08c379a0000000000000000000000000000000000000000000000000000000008152600401610ed690611ac3565b60405180910390fd5b8060018190555050565b60015481565b60036020528060005260406000206000915090505481565b610f0f611156565b73ffffffffffffffffffffffffffffffffffffffff16610f2d61075e565b73ffffffffffffffffffffffffffffffffffffffff1614610f83576040517f08c379a0000000000000000000000000000000000000000000000000000000008152600401610f7a90611ac3565b60405180910390fd5b600073ffffffffffffffffffffffffffffffffffffffff168173ffffffffffffffffffffffffffffffffffffffff161415610ff3576040517f08c379a0000000000000000000000000000000000000000000000000000000008152600401610fea90611a23565b60405180910390fd5b610ffc8161115e565b50565b6000600760008481526020019081526020016000205490506000600860008381526020019081526020016000208054806020026020016040519081016040528092919081815260200182805480156110ac57602002820191906000526020600020905b8160009054906101000a900473ffffffffffffffffffffffffffffffffffffffff1673ffffffffffffffffffffffffffffffffffffffff1681526020019060010190808311611062575b5050505050905060008151846000815181106110f1577f4e487b7100000000000000000000000000000000000000000000000000000000600052603260045260246000fd5b60200260200101516111039190611d5f565b905061114f83838381518110611142577f4e487b7100000000000000000000000000000000000000000000000000000000600052603260045260246000fd5b6020026020010151611355565b5050505050565b600033905090565b60008060009054906101000a900473ffffffffffffffffffffffffffffffffffffffff169050816000806101000a81548173ffffffffffffffffffffffffffffffffffffffff021916908373ffffffffffffffffffffffffffffffffffffffff1602179055508173ffffffffffffffffffffffffffffffffffffffff168173ffffffffffffffffffffffffffffffffffffffff167f8be0079c531659141344cd1fd0a4f28419497f9722a3daafe3b4186f6b6457e060405160405180910390a35050565b6001816000016000828254019250508190555050565b600081600001549050919050565b600080600260003373ffffffffffffffffffffffffffffffffffffffff1673ffffffffffffffffffffffffffffffffffffffff1681526020019081526020016000208054806020026020016040519081016040528092919081815260200182805480156112d257602002820191906000526020600020905b8154815260200190600101908083116112be575b505050505090506000805b825181101561134a5784838281518110611320577f4e487b7100000000000000000000000000000000000000000000000000000000600052603260045260246000fd5b60200260200101511415611337576001915061134a565b808061134290611d16565b9150506112dd565b508092505050919050565b6002600381111561138f577f4e487b7100000000000000000000000000000000000000000000000000000000600052602160045260246000fd5b6005600084815260200190815260200160002060009054906101000a900460ff1660038111156113e8577f4e487b7100000000000000000000000000000000000000000000000000000000600052602160045260246000fd5b14611428576040517f08c379a000000000000000000000000000000000000000000000000000000000815260040161141f90611b23565b60405180910390fd5b60036005600084815260200190815260200160002060006101000a81548160ff02191690836003811115611485577f4e487b7100000000000000000000000000000000000000000000000000000000600052602160045260246000fd5b0217905550600060066000848152602001908152602001600020549050600060066000858152602001908152602001600020819055508173ffffffffffffffffffffffffffffffffffffffff166108fc829081150290604051600060405180830381858888f19350505050158015611501573d6000803e3d6000fd5b506008600084815260200190815260200160002060006115219190611526565b505050565b50805460008255906000526020600020908101906115449190611547565b50565b5b80821115611560576000816000905550600101611548565b5090565b600061157761157284611ba3565b611b7e565b9050808382526020820190508285602086028201111561159657600080fd5b60005b858110156115c657816115ac888261160f565b845260208401935060208301925050600181019050611599565b5050509392505050565b6000813590506115df816120ef565b92915050565b600082601f8301126115f657600080fd5b8135611606848260208601611564565b91505092915050565b60008135905061161e81612106565b92915050565b60008151905061163381612106565b92915050565b60006020828403121561164b57600080fd5b6000611659848285016115d0565b91505092915050565b6000806040838503121561167557600080fd5b6000611683858286016115d0565b92505060206116948582860161160f565b9150509250929050565b6000602082840312156116b057600080fd5b60006116be8482850161160f565b91505092915050565b6000602082840312156116d957600080fd5b60006116e784828501611624565b91505092915050565b6000806040838503121561170357600080fd5b60006117118582860161160f565b925050602083013567ffffffffffffffff81111561172e57600080fd5b61173a858286016115e5565b9150509250929050565b6000806040838503121561175757600080fd5b60006117658582860161160f565b92505060206117768582860161160f565b9150509250929050565b61178981611c48565b82525050565b61179881611c36565b82525050565b6117a781611c5a565b82525050565b6117b681611cd3565b82525050565b60006117c9602683611bcf565b91506117d482611e5d565b604082019050919050565b60006117ec603183611bcf565b91506117f782611eac565b604082019050919050565b600061180f601a83611bcf565b915061181a82611efb565b602082019050919050565b6000611832600c83611bcf565b915061183d82611f24565b602082019050919050565b6000611855601d83611bcf565b915061186082611f4d565b602082019050919050565b6000611878602083611bcf565b915061188382611f76565b602082019050919050565b600061189b602383611bcf565b91506118a682611f9f565b604082019050919050565b60006118be603283611bcf565b91506118c982611fee565b604082019050919050565b60006118e1602a83611bcf565b91506118ec8261203d565b604082019050919050565b6000611904602283611bcf565b915061190f8261208c565b604082019050919050565b61192381611c77565b82525050565b61193281611ca5565b82525050565b61194181611caf565b82525050565b61195081611cbf565b82525050565b600060208201905061196b600083018461178f565b92915050565b60006020820190506119866000830184611780565b92915050565b60006040820190506119a1600083018561178f565b6119ae602083018461178f565b9392505050565b600060a0820190506119ca600083018861179e565b6119d76020830187611947565b6119e4604083018661191a565b6119f16060830185611938565b6119fe6080830184611938565b9695505050505050565b6000602082019050611a1d60008301846117ad565b92915050565b60006020820190508181036000830152611a3c816117bc565b9050919050565b60006020820190508181036000830152611a5c816117df565b9050919050565b60006020820190508181036000830152611a7c81611802565b9050919050565b60006020820190508181036000830152611a9c81611825565b9050919050565b60006020820190508181036000830152611abc81611848565b9050919050565b60006020820190508181036000830152611adc8161186b565b9050919050565b60006020820190508181036000830152611afc8161188e565b9050919050565b60006020820190508181036000830152611b1c816118b1565b9050919050565b60006020820190508181036000830152611b3c816118d4565b9050919050565b60006020820190508181036000830152611b5c816118f7565b9050919050565b6000602082019050611b786000830184611929565b92915050565b6000611b88611b99565b9050611b948282611ce5565b919050565b6000604051905090565b600067ffffffffffffffff821115611bbe57611bbd611e1d565b5b602082029050602081019050919050565b600082825260208201905092915050565b6000611beb82611ca5565b9150611bf683611ca5565b9250827fffffffffffffffffffffffffffffffffffffffffffffffffffffffffffffffff03821115611c2b57611c2a611d90565b5b828201905092915050565b6000611c4182611c85565b9050919050565b6000611c5382611c85565b9050919050565b6000819050919050565b6000819050611c72826120db565b919050565b600061ffff82169050919050565b600073ffffffffffffffffffffffffffffffffffffffff82169050919050565b6000819050919050565b600063ffffffff82169050919050565b600067ffffffffffffffff82169050919050565b6000611cde82611c64565b9050919050565b611cee82611e4c565b810181811067ffffffffffffffff82111715611d0d57611d0c611e1d565b5b80604052505050565b6000611d2182611ca5565b91507fffffffffffffffffffffffffffffffffffffffffffffffffffffffffffffffff821415611d5457611d53611d90565b5b600182019050919050565b6000611d6a82611ca5565b9150611d7583611ca5565b925082611d8557611d84611dbf565b5b828206905092915050565b7f4e487b7100000000000000000000000000000000000000000000000000000000600052601160045260246000fd5b7f4e487b7100000000000000000000000000000000000000000000000000000000600052601260045260246000fd5b7f4e487b7100000000000000000000000000000000000000000000000000000000600052602160045260246000fd5b7f4e487b7100000000000000000000000000000000000000000000000000000000600052604160045260246000fd5b6000601f19601f8301169050919050565b7f4f776e61626c653a206e6577206f776e657220697320746865207a65726f206160008201527f6464726573730000000000000000000000000000000000000000000000000000602082015250565b7f4f6e6c792063726561746f72206f6620746865204c6f74746572792063616e2060008201527f63616c63756c6174652077696e6e657273000000000000000000000000000000602082015250565b7f536f7272792c206c6f7474657279206973206e6f74206f70656e000000000000600082015250565b7f4e6f20656e7472616e6365730000000000000000000000000000000000000000600082015250565b7f536f7272792c206c6f7474657279206973206e6f742073746f70706564000000600082015250565b7f4f776e61626c653a2063616c6c6572206973206e6f7420746865206f776e6572600082015250565b7f4e6f7420656e6f7567682045544820746f20656e74657220746865206c6f747460008201527f6572790000000000000000000000000000000000000000000000000000000000602082015250565b7f4f6e6c792063726561746f72206f6620746865206c6f74746572792063616e2060008201527f73746f702074686520656e7472616e6365730000000000000000000000000000602082015250565b7f536f7272792c206c6f7474657279206973206e6f7420696e2043616c63756c6160008201527f74696e6720737461746500000000000000000000000000000000000000000000602082015250565b7f4e6f7420656e6f7567682045544820746f206372656174652061206c6f74746560008201527f7279000000000000000000000000000000000000000000000000000000000000602082015250565b600481106120ec576120eb611dee565b5b50565b6120f881611c36565b811461210357600080fd5b50565b61210f81611ca5565b811461211a57600080fd5b5056fea26469706673582212206c833c9ff51d79983571d9d0d18e73b5d2a7878f9eea9a3d3cb63f73c57c111064736f6c63430008040033",
  "devdoc": {
    "kind": "dev",
    "methods": {
      "owner()": {
        "details": "Returns the address of the current owner."
      },
      "renounceOwnership()": {
        "details": "Leaves the contract without owner. It will not be possible to call `onlyOwner` functions anymore. Can only be called by the current owner. NOTE: Renouncing ownership will leave the contract without an owner, thereby removing any functionality that is only available to the owner."
      },
      "transferOwnership(address)": {
        "details": "Transfers ownership of the contract to a new account (`newOwner`). Can only be called by the current owner."
      }
    },
    "version": 1
  },
  "userdoc": {
    "kind": "user",
    "methods": {},
    "version": 1
  },
  "storageLayout": {
    "storage": [
      {
        "astId": 154,
        "contract": "contracts/LotteryMaker.sol:LotteryMaker",
        "label": "_owner",
        "offset": 0,
        "slot": "0",
        "type": "t_address"
      },
      {
        "astId": 374,
        "contract": "contracts/LotteryMaker.sol:LotteryMaker",
        "label": "creatorFee",
        "offset": 0,
        "slot": "1",
        "type": "t_uint256"
      },
      {
        "astId": 379,
        "contract": "contracts/LotteryMaker.sol:LotteryMaker",
        "label": "ownerLotteryIDMapping",
        "offset": 0,
        "slot": "2",
        "type": "t_mapping(t_address,t_array(t_uint256)dyn_storage)"
      },
      {
        "astId": 383,
        "contract": "contracts/LotteryMaker.sol:LotteryMaker",
        "label": "lotteryIDFeeMapping",
        "offset": 0,
        "slot": "3",
        "type": "t_mapping(t_uint256,t_uint256)"
      },
      {
        "astId": 387,
        "contract": "contracts/LotteryMaker.sol:LotteryMaker",
        "label": "lotteryIDDurationMapping",
        "offset": 0,
        "slot": "4",
        "type": "t_mapping(t_uint256,t_uint256)"
      },
      {
        "astId": 392,
        "contract": "contracts/LotteryMaker.sol:LotteryMaker",
        "label": "lotteryIDStateMapping",
        "offset": 0,
        "slot": "5",
        "type": "t_mapping(t_uint256,t_enum(LotteryState)366)"
      },
      {
        "astId": 396,
        "contract": "contracts/LotteryMaker.sol:LotteryMaker",
        "label": "lotteryIDBalanceMapping",
        "offset": 0,
        "slot": "6",
        "type": "t_mapping(t_uint256,t_uint256)"
      },
      {
        "astId": 400,
        "contract": "contracts/LotteryMaker.sol:LotteryMaker",
        "label": "requestIDLotteryIDMapping",
        "offset": 0,
        "slot": "7",
        "type": "t_mapping(t_uint256,t_uint256)"
      },
      {
        "astId": 405,
        "contract": "contracts/LotteryMaker.sol:LotteryMaker",
        "label": "lotteryIDEntrancesMapping",
        "offset": 0,
        "slot": "8",
        "type": "t_mapping(t_uint256,t_array(t_address_payable)dyn_storage)"
      },
      {
        "astId": 408,
        "contract": "contracts/LotteryMaker.sol:LotteryMaker",
        "label": "lotteryIDCounter",
        "offset": 0,
        "slot": "9",
        "type": "t_struct(Counter)279_storage"
      },
      {
        "astId": 411,
        "contract": "contracts/LotteryMaker.sol:LotteryMaker",
        "label": "COORDINATOR",
        "offset": 0,
        "slot": "10",
        "type": "t_contract(VRFCoordinatorV2Interface)146"
      },
      {
        "astId": 413,
        "contract": "contracts/LotteryMaker.sol:LotteryMaker",
        "label": "s_subscriptionId",
        "offset": 20,
        "slot": "10",
        "type": "t_uint64"
      },
      {
        "astId": 415,
        "contract": "contracts/LotteryMaker.sol:LotteryMaker",
        "label": "keyHash",
        "offset": 0,
        "slot": "11",
        "type": "t_bytes32"
      },
      {
        "astId": 418,
        "contract": "contracts/LotteryMaker.sol:LotteryMaker",
        "label": "callbackGasLimit",
        "offset": 0,
        "slot": "12",
        "type": "t_uint32"
      },
      {
        "astId": 421,
        "contract": "contracts/LotteryMaker.sol:LotteryMaker",
        "label": "requestConfirmations",
        "offset": 4,
        "slot": "12",
        "type": "t_uint16"
      },
      {
        "astId": 424,
        "contract": "contracts/LotteryMaker.sol:LotteryMaker",
        "label": "numWords",
        "offset": 6,
        "slot": "12",
        "type": "t_uint32"
      }
    ],
    "types": {
      "t_address": {
        "encoding": "inplace",
        "label": "address",
        "numberOfBytes": "20"
      },
      "t_address_payable": {
        "encoding": "inplace",
        "label": "address payable",
        "numberOfBytes": "20"
      },
      "t_array(t_address_payable)dyn_storage": {
        "base": "t_address_payable",
        "encoding": "dynamic_array",
        "label": "address payable[]",
        "numberOfBytes": "32"
      },
      "t_array(t_uint256)dyn_storage": {
        "base": "t_uint256",
        "encoding": "dynamic_array",
        "label": "uint256[]",
        "numberOfBytes": "32"
      },
      "t_bytes32": {
        "encoding": "inplace",
        "label": "bytes32",
        "numberOfBytes": "32"
      },
      "t_contract(VRFCoordinatorV2Interface)146": {
        "encoding": "inplace",
        "label": "contract VRFCoordinatorV2Interface",
        "numberOfBytes": "20"
      },
      "t_enum(LotteryState)366": {
        "encoding": "inplace",
        "label": "enum LotteryMaker.LotteryState",
        "numberOfBytes": "1"
      },
      "t_mapping(t_address,t_array(t_uint256)dyn_storage)": {
        "encoding": "mapping",
        "key": "t_address",
        "label": "mapping(address => uint256[])",
        "numberOfBytes": "32",
        "value": "t_array(t_uint256)dyn_storage"
      },
      "t_mapping(t_uint256,t_array(t_address_payable)dyn_storage)": {
        "encoding": "mapping",
        "key": "t_uint256",
        "label": "mapping(uint256 => address payable[])",
        "numberOfBytes": "32",
        "value": "t_array(t_address_payable)dyn_storage"
      },
      "t_mapping(t_uint256,t_enum(LotteryState)366)": {
        "encoding": "mapping",
        "key": "t_uint256",
        "label": "mapping(uint256 => enum LotteryMaker.LotteryState)",
        "numberOfBytes": "32",
        "value": "t_enum(LotteryState)366"
      },
      "t_mapping(t_uint256,t_uint256)": {
        "encoding": "mapping",
        "key": "t_uint256",
        "label": "mapping(uint256 => uint256)",
        "numberOfBytes": "32",
        "value": "t_uint256"
      },
      "t_struct(Counter)279_storage": {
        "encoding": "inplace",
        "label": "struct Counters.Counter",
        "members": [
          {
            "astId": 278,
            "contract": "contracts/LotteryMaker.sol:LotteryMaker",
            "label": "_value",
            "offset": 0,
            "slot": "0",
            "type": "t_uint256"
          }
        ],
        "numberOfBytes": "32"
      },
      "t_uint16": {
        "encoding": "inplace",
        "label": "uint16",
        "numberOfBytes": "2"
      },
      "t_uint256": {
        "encoding": "inplace",
        "label": "uint256",
        "numberOfBytes": "32"
      },
      "t_uint32": {
        "encoding": "inplace",
        "label": "uint32",
        "numberOfBytes": "4"
      },
      "t_uint64": {
        "encoding": "inplace",
        "label": "uint64",
        "numberOfBytes": "8"
      }
    }
  }
}