{
  "address": "0x45c55beD0526038aE446932776131b2A5A92dD0F",
  "abi": [
    {
      "inputs": [
        {
          "internalType": "uint256",
          "name": "_creatorFee",
          "type": "uint256"
        },
        {
          "internalType": "address",
          "name": "_vrfCoordinator",
          "type": "address"
        },
        {
          "internalType": "uint64",
          "name": "_subscriptionId",
          "type": "uint64"
        },
        {
          "internalType": "bytes32",
          "name": "_keyHash",
          "type": "bytes32"
        }
      ],
      "stateMutability": "nonpayable",
      "type": "constructor"
    },
    {
      "inputs": [
        {
          "internalType": "address",
          "name": "have",
          "type": "address"
        },
        {
          "internalType": "address",
          "name": "want",
          "type": "address"
        }
      ],
      "name": "OnlyCoordinatorCanFulfill",
      "type": "error"
    },
    {
      "anonymous": false,
      "inputs": [
        {
          "indexed": false,
          "internalType": "address",
          "name": "owner",
          "type": "address"
        },
        {
          "indexed": false,
          "internalType": "uint256",
          "name": "lotteryID",
          "type": "uint256"
        }
      ],
      "name": "LotteryCreatedEvent",
      "type": "event"
    },
    {
      "anonymous": false,
      "inputs": [
        {
          "indexed": true,
          "internalType": "address",
          "name": "previousOwner",
          "type": "address"
        },
        {
          "indexed": true,
          "internalType": "address",
          "name": "newOwner",
          "type": "address"
        }
      ],
      "name": "OwnershipTransferred",
      "type": "event"
    },
    {
      "inputs": [
        {
          "internalType": "uint256",
          "name": "lotteryID",
          "type": "uint256"
        }
      ],
      "name": "calculateWinner",
      "outputs": [],
      "stateMutability": "nonpayable",
      "type": "function"
    },
    {
      "inputs": [
        {
          "internalType": "uint256",
          "name": "_newFee",
          "type": "uint256"
        }
      ],
      "name": "changeCreatorFee",
      "outputs": [],
      "stateMutability": "nonpayable",
      "type": "function"
    },
    {
      "inputs": [
        {
          "internalType": "uint256",
          "name": "entranceFee",
          "type": "uint256"
        }
      ],
      "name": "createLottery",
      "outputs": [],
      "stateMutability": "payable",
      "type": "function"
    },
    {
      "inputs": [],
      "name": "creatorFee",
      "outputs": [
        {
          "internalType": "uint256",
          "name": "",
          "type": "uint256"
        }
      ],
      "stateMutability": "view",
      "type": "function"
    },
    {
      "inputs": [
        {
          "internalType": "uint256",
          "name": "lotteryID",
          "type": "uint256"
        }
      ],
      "name": "enterLottery",
      "outputs": [],
      "stateMutability": "payable",
      "type": "function"
    },
    {
      "inputs": [
        {
          "internalType": "uint256",
          "name": "",
          "type": "uint256"
        }
      ],
      "name": "lotteryIDBalanceMapping",
      "outputs": [
        {
          "internalType": "uint256",
          "name": "",
          "type": "uint256"
        }
      ],
      "stateMutability": "view",
      "type": "function"
    },
    {
      "inputs": [
        {
          "internalType": "uint256",
          "name": "",
          "type": "uint256"
        }
      ],
      "name": "lotteryIDDurationMapping",
      "outputs": [
        {
          "internalType": "uint256",
          "name": "",
          "type": "uint256"
        }
      ],
      "stateMutability": "view",
      "type": "function"
    },
    {
      "inputs": [
        {
          "internalType": "uint256",
          "name": "",
          "type": "uint256"
        },
        {
          "internalType": "uint256",
          "name": "",
          "type": "uint256"
        }
      ],
      "name": "lotteryIDEntrancesMapping",
      "outputs": [
        {
          "internalType": "address payable",
          "name": "",
          "type": "address"
        }
      ],
      "stateMutability": "view",
      "type": "function"
    },
    {
      "inputs": [
        {
          "internalType": "uint256",
          "name": "",
          "type": "uint256"
        }
      ],
      "name": "lotteryIDFeeMapping",
      "outputs": [
        {
          "internalType": "uint256",
          "name": "",
          "type": "uint256"
        }
      ],
      "stateMutability": "view",
      "type": "function"
    },
    {
      "inputs": [
        {
          "internalType": "uint256",
          "name": "",
          "type": "uint256"
        }
      ],
      "name": "lotteryIDStateMapping",
      "outputs": [
        {
          "internalType": "enum LotteryMaker.LotteryState",
          "name": "",
          "type": "uint8"
        }
      ],
      "stateMutability": "view",
      "type": "function"
    },
    {
      "inputs": [],
      "name": "owner",
      "outputs": [
        {
          "internalType": "address",
          "name": "",
          "type": "address"
        }
      ],
      "stateMutability": "view",
      "type": "function"
    },
    {
      "inputs": [
        {
          "internalType": "address",
          "name": "",
          "type": "address"
        },
        {
          "internalType": "uint256",
          "name": "",
          "type": "uint256"
        }
      ],
      "name": "ownerLotteryIDMapping",
      "outputs": [
        {
          "internalType": "uint256",
          "name": "",
          "type": "uint256"
        }
      ],
      "stateMutability": "view",
      "type": "function"
    },
    {
      "inputs": [
        {
          "internalType": "uint256",
          "name": "requestId",
          "type": "uint256"
        },
        {
          "internalType": "uint256[]",
          "name": "randomWords",
          "type": "uint256[]"
        }
      ],
      "name": "rawFulfillRandomWords",
      "outputs": [],
      "stateMutability": "nonpayable",
      "type": "function"
    },
    {
      "inputs": [],
      "name": "renounceOwnership",
      "outputs": [],
      "stateMutability": "nonpayable",
      "type": "function"
    },
    {
      "inputs": [
        {
          "internalType": "uint256",
          "name": "",
          "type": "uint256"
        }
      ],
      "name": "requestIDLotteryIDMapping",
      "outputs": [
        {
          "internalType": "uint256",
          "name": "",
          "type": "uint256"
        }
      ],
      "stateMutability": "view",
      "type": "function"
    },
    {
      "inputs": [
        {
          "internalType": "uint256",
          "name": "lotteryID",
          "type": "uint256"
        }
      ],
      "name": "stopEntrance",
      "outputs": [],
      "stateMutability": "nonpayable",
      "type": "function"
    },
    {
      "inputs": [
        {
          "internalType": "address",
          "name": "newOwner",
          "type": "address"
        }
      ],
      "name": "transferOwnership",
      "outputs": [],
      "stateMutability": "nonpayable",
      "type": "function"
    }
  ],
  "transactionHash": "0xa5ceba65303f794a35709847c739d56122ca94841c02acfbbb14d49aec0b4194",
  "args": [
    "1000000000000000",
    "0x6168499c0cFfCaCD319c818142124B7A15E857ab",
    "2671",
    "0xd89b2bf150e3b9e13446986e571fb9cab24b13cea0a43ea20a6049a85cc807cc"
  ],
  "numDeployments": 2,
  "solcInputHash": "711acf45fef898676f900fa83a55cb0c",
  "bytecode": "0x60a0604052620186a0600c60006101000a81548163ffffffff021916908363ffffffff1602179055506003600c60046101000a81548161ffff021916908361ffff1602179055506001600c60066101000a81548163ffffffff021916908363ffffffff1602179055503480156200007557600080fd5b506040516200324c3803806200324c83398181016040528101906200009b91906200039d565b82620000bc620000b0620001a660201b60201c565b620001ae60201b60201c565b8073ffffffffffffffffffffffffffffffffffffffff1660808173ffffffffffffffffffffffffffffffffffffffff1660601b815250505082600a60006101000a81548173ffffffffffffffffffffffffffffffffffffffff021916908373ffffffffffffffffffffffffffffffffffffffff160217905550620001656040518060600160405280602b815260200162003221602b9139856200027260201b620013ad1760201c565b8360018190555081600a60146101000a81548167ffffffffffffffff021916908367ffffffffffffffff16021790555080600b8190555050505050620005b6565b600033905090565b60008060009054906101000a900473ffffffffffffffffffffffffffffffffffffffff169050816000806101000a81548173ffffffffffffffffffffffffffffffffffffffff021916908373ffffffffffffffffffffffffffffffffffffffff1602179055508173ffffffffffffffffffffffffffffffffffffffff168173ffffffffffffffffffffffffffffffffffffffff167f8be0079c531659141344cd1fd0a4f28419497f9722a3daafe3b4186f6b6457e060405160405180910390a35050565b6200031482826040516024016200028b9291906200045b565b6040516020818303038152906040527f9710a9d0000000000000000000000000000000000000000000000000000000007bffffffffffffffffffffffffffffffffffffffffffffffffffffffff19166020820180517bffffffffffffffffffffffffffffffffffffffffffffffffffffffff83818316178352505050506200031860201b60201c565b5050565b60008151905060006a636f6e736f6c652e6c6f679050602083016000808483855afa5050505050565b60008151905062000352816200054e565b92915050565b600081519050620003698162000568565b92915050565b600081519050620003808162000582565b92915050565b60008151905062000397816200059c565b92915050565b60008060008060808587031215620003b457600080fd5b6000620003c4878288016200036f565b9450506020620003d78782880162000341565b9350506040620003ea8782880162000386565b9250506060620003fd8782880162000358565b91505092959194509250565b600062000416826200048f565b6200042281856200049a565b93506200043481856020860162000507565b6200043f816200053d565b840191505092915050565b6200045581620004e9565b82525050565b6000604082019050818103600083015262000477818562000409565b90506200048860208301846200044a565b9392505050565b600081519050919050565b600082825260208201905092915050565b6000620004b882620004c9565b9050919050565b6000819050919050565b600073ffffffffffffffffffffffffffffffffffffffff82169050919050565b6000819050919050565b600067ffffffffffffffff82169050919050565b60005b83811015620005275780820151818401526020810190506200050a565b8381111562000537576000848401525b50505050565b6000601f19601f8301169050919050565b6200055981620004ab565b81146200056557600080fd5b50565b6200057381620004bf565b81146200057f57600080fd5b50565b6200058d81620004e9565b81146200059957600080fd5b50565b620005a781620004f3565b8114620005b357600080fd5b50565b60805160601c612c45620005dc6000396000818161042201526104760152612c456000f3fe6080604052600436106100fe5760003560e01c8063c154962911610095578063deca81f211610064578063deca81f214610329578063e3c55e4014610366578063e88958dc1461038f578063e8b161ad146103ba578063f2fde38b146103f7576100fe565b8063c154962914610249578063cbc3886714610286578063d31c9045146102c3578063da1086a014610300576100fe565b80638da5cb5b116100d15780638da5cb5b1461019c5780638dd8c56d146101c75780638e4acab5146101e35780639ad2acf514610220576100fe565b80631fe543e3146101035780631fec39381461012c5780633fd4309814610169578063715018a614610185575b600080fd5b34801561010f57600080fd5b5061012a60048036038101906101259190611f49565b610420565b005b34801561013857600080fd5b50610153600480360381019061014e9190611ef7565b6104e0565b60405161016091906122c3565b60405180910390f35b610183600480360381019061017e9190611ef7565b610500565b005b34801561019157600080fd5b5061019a61078f565b005b3480156101a857600080fd5b506101b1610817565b6040516101be91906121e8565b60405180910390f35b6101e160048036038101906101dc9190611ef7565b610840565b005b3480156101ef57600080fd5b5061020a60048036038101906102059190611ef7565b610ac6565b60405161021791906124c3565b60405180910390f35b34801561022c57600080fd5b5061024760048036038101906102429190611ef7565b610ade565b005b34801561025557600080fd5b50610270600480360381019061026b9190611ef7565b610d73565b60405161027d91906124c3565b60405180910390f35b34801561029257600080fd5b506102ad60048036038101906102a89190611f9d565b610d8b565b6040516102ba9190612203565b60405180910390f35b3480156102cf57600080fd5b506102ea60048036038101906102e59190611ebb565b610dd9565b6040516102f791906124c3565b60405180910390f35b34801561030c57600080fd5b5061032760048036038101906103229190611ef7565b610e0a565b005b34801561033557600080fd5b50610350600480360381019061034b9190611ef7565b6111ba565b60405161035d91906124c3565b60405180910390f35b34801561037257600080fd5b5061038d60048036038101906103889190611ef7565b6111d2565b005b34801561039b57600080fd5b506103a4611297565b6040516103b191906124c3565b60405180910390f35b3480156103c657600080fd5b506103e160048036038101906103dc9190611ef7565b61129d565b6040516103ee91906124c3565b60405180910390f35b34801561040357600080fd5b5061041e60048036038101906104199190611e92565b6112b5565b005b7f000000000000000000000000000000000000000000000000000000000000000073ffffffffffffffffffffffffffffffffffffffff163373ffffffffffffffffffffffffffffffffffffffff16146104d257337f00000000000000000000000000000000000000000000000000000000000000006040517f1cf993f40000000000000000000000000000000000000000000000000000000081526004016104c992919061221e565b60405180910390fd5b6104dc8282611449565b5050565b60056020528060005260406000206000915054906101000a900460ff1681565b6105756040518060400160405280601781526020017f656e7465724c6f7474657279286c6f747465727949443d000000000000000000815250826040518060400160405280600181526020017f29000000000000000000000000000000000000000000000000000000000000008152506116fb565b610597604051806060016040528060288152602001612b0660289139826113ad565b600060038111156105d1577f4e487b7100000000000000000000000000000000000000000000000000000000600052602160045260246000fd5b6005600083815260200190815260200160002060009054906101000a900460ff16600381111561062a577f4e487b7100000000000000000000000000000000000000000000000000000000600052602160045260246000fd5b1461066a576040517f08c379a0000000000000000000000000000000000000000000000000000000008152600401610661906123c3565b60405180910390fd5b60036000828152602001908152602001600020543410156106c0576040517f08c379a00000000000000000000000000000000000000000000000000000000081526004016106b790612443565b60405180910390fd5b6106e26040518060600160405280602a8152602001612b2e602a9139346113ad565b346006600083815260200190815260200160002054610701919061254b565b600660008381526020019081526020016000208190555060086000828152602001908152602001600020339080600181540180825580915050600190039060005260206000200160009091909190916101000a81548173ffffffffffffffffffffffffffffffffffffffff021916908373ffffffffffffffffffffffffffffffffffffffff16021790555050565b61079761179a565b73ffffffffffffffffffffffffffffffffffffffff166107b5610817565b73ffffffffffffffffffffffffffffffffffffffff161461080b576040517f08c379a000000000000000000000000000000000000000000000000000000000815260040161080290612423565b60405180910390fd5b61081560006117a2565b565b60008060009054906101000a900473ffffffffffffffffffffffffffffffffffffffff16905090565b6108b56040518060400160405280601a81526020017f6372656174654c6f747465727928656e7472616e63654665653d000000000000815250826040518060400160405280600181526020017f29000000000000000000000000000000000000000000000000000000000000008152506116fb565b6001543410156108fa576040517f08c379a00000000000000000000000000000000000000000000000000000000081526004016108f1906124a3565b60405180910390fd5b6109396040518060400160405280601e81526020017f2020204372656174652061206c6f74746572792077697468206665653a200000815250826113ad565b6109436009611866565b600061094f600961187c565b90506109906040518060400160405280600e81526020017f2020204c6f747465727949443a20000000000000000000000000000000000000815250826113ad565b600260003373ffffffffffffffffffffffffffffffffffffffff1673ffffffffffffffffffffffffffffffffffffffff16815260200190815260200160002081908060018154018082558091505060019003906000526020600020016000909190919091505581600360008381526020019081526020016000208190555060006005600083815260200190815260200160002060006101000a81548160ff02191690836003811115610a6b577f4e487b7100000000000000000000000000000000000000000000000000000000600052602160045260246000fd5b0217905550600060066000838152602001908152602001600020819055507fe03d61f742c11525b3c0d7993f45fbf687ef314840bc5afa547d6d74f40cabb63382604051610aba929190612247565b60405180910390a15050565b60066020528060005260406000206000915090505481565b610b536040518060400160405280601781526020017f73746f70456e7472616e6365286c6f747465727949443d000000000000000000815250826040518060400160405280600181526020017f29000000000000000000000000000000000000000000000000000000000000008152506116fb565b610b75604051806060016040528060218152602001612ba260219139826113ad565b610bb46040518060400160405280600e81526020017f2020206d73672e73656e6465723a0000000000000000000000000000000000008152503361188a565b610bbd81611926565b610bfc576040517f08c379a0000000000000000000000000000000000000000000000000000000008152600401610bf390612463565b60405180910390fd5b60006003811115610c36577f4e487b7100000000000000000000000000000000000000000000000000000000600052602160045260246000fd5b6005600083815260200190815260200160002060009054906101000a900460ff166003811115610c8f577f4e487b7100000000000000000000000000000000000000000000000000000000600052602160045260246000fd5b14610ccf576040517f08c379a0000000000000000000000000000000000000000000000000000000008152600401610cc6906123c3565b60405180910390fd5b60016005600083815260200190815260200160002060006101000a81548160ff02191690836003811115610d2c577f4e487b7100000000000000000000000000000000000000000000000000000000600052602160045260246000fd5b0217905550610d706040518060400160405280601381526020017f2020204c6f74746572792073746f707065642000000000000000000000000000815250826113ad565b50565b60076020528060005260406000206000915090505481565b60086020528160005260406000208181548110610da757600080fd5b906000526020600020016000915091509054906101000a900473ffffffffffffffffffffffffffffffffffffffff1681565b60026020528160005260406000208181548110610df557600080fd5b90600052602060002001600091509150505481565b610e7f6040518060400160405280601a81526020017f63616c63756c61746557696e6e6572286c6f747465727949443d000000000000815250826040518060400160405280600181526020017f29000000000000000000000000000000000000000000000000000000000000008152506116fb565b610e8881611926565b610ec7576040517f08c379a0000000000000000000000000000000000000000000000000000000008152600401610ebe906123a3565b60405180910390fd5b60016003811115610f01577f4e487b7100000000000000000000000000000000000000000000000000000000600052602160045260246000fd5b6005600083815260200190815260200160002060009054906101000a900460ff166003811115610f5a577f4e487b7100000000000000000000000000000000000000000000000000000000600052602160045260246000fd5b14610f9a576040517f08c379a0000000000000000000000000000000000000000000000000000000008152600401610f9190612403565b60405180910390fd5b6000600860008381526020019081526020016000208054905011610ff3576040517f08c379a0000000000000000000000000000000000000000000000000000000008152600401610fea906123e3565b60405180910390fd5b611015604051806060016040528060268152602001612ae060269139826113ad565b60026005600083815260200190815260200160002060006101000a81548160ff02191690836003811115611072577f4e487b7100000000000000000000000000000000000000000000000000000000600052602160045260246000fd5b02179055506000600a60009054906101000a900473ffffffffffffffffffffffffffffffffffffffff1673ffffffffffffffffffffffffffffffffffffffff16635d3b1d30600b54600a60149054906101000a900467ffffffffffffffff16600c60049054906101000a900461ffff16600c60009054906101000a900463ffffffff16600c60069054906101000a900463ffffffff166040518663ffffffff1660e01b8152600401611128959493929190612270565b602060405180830381600087803b15801561114257600080fd5b505af1158015611156573d6000803e3d6000fd5b505050506040513d601f19601f8201168201806040525081019061117a9190611f20565b90508160076000838152602001908152602001600020819055506111b6604051806060016040528060278152602001612b5860279139826113ad565b5050565b60046020528060005260406000206000915090505481565b6111da61179a565b73ffffffffffffffffffffffffffffffffffffffff166111f8610817565b73ffffffffffffffffffffffffffffffffffffffff161461124e576040517f08c379a000000000000000000000000000000000000000000000000000000000815260040161124590612423565b60405180910390fd5b61128d6040518060400160405280601881526020017f4368616e67652066656520746f206e65772076616c75653a0000000000000000815250826113ad565b8060018190555050565b60015481565b60036020528060005260406000206000915090505481565b6112bd61179a565b73ffffffffffffffffffffffffffffffffffffffff166112db610817565b73ffffffffffffffffffffffffffffffffffffffff1614611331576040517f08c379a000000000000000000000000000000000000000000000000000000000815260040161132890612423565b60405180910390fd5b600073ffffffffffffffffffffffffffffffffffffffff168173ffffffffffffffffffffffffffffffffffffffff1614156113a1576040517f08c379a000000000000000000000000000000000000000000000000000000000815260040161139890612383565b60405180910390fd5b6113aa816117a2565b50565b61144582826040516024016113c392919061230e565b6040516020818303038152906040527f9710a9d0000000000000000000000000000000000000000000000000000000007bffffffffffffffffffffffffffffffffffffffffffffffffffffffff19166020820180517bffffffffffffffffffffffffffffffffffffffffffffffffffffffff8381831617835250505050611a31565b5050565b6114be6040518060400160405280601d81526020017f66756c66696c6c52616e646f6d576f726473287265717565737449443d000000815250836040518060400160405280601081526020017f2c72616e646f6d576f7264733d2e2e29000000000000000000000000000000008152506116fb565b6114e0604051806060016040528060238152602001612b7f60239139836113ad565b611543604051806060016040528060288152602001612be86028913982600081518110611536577f4e487b7100000000000000000000000000000000000000000000000000000000600052603260045260246000fd5b60200260200101516113ad565b60006007600084815260200190815260200160002054905061157d604051806060016040528060258152602001612bc360259139826113ad565b60006008600083815260200190815260200160002080548060200260200160405190810160405280929190818152602001828054801561161257602002820191906000526020600020905b8160009054906101000a900473ffffffffffffffffffffffffffffffffffffffff1673ffffffffffffffffffffffffffffffffffffffff16815260200190600101908083116115c8575b505050505090506000815184600081518110611657577f4e487b7100000000000000000000000000000000000000000000000000000000600052603260045260246000fd5b602002602001015161166991906126fd565b90506116aa6040518060400160405280601d81526020017f20202043616c63756c617465642077696e6e6572206e756d6265723a20000000815250826113ad565b6116f4838383815181106116e7577f4e487b7100000000000000000000000000000000000000000000000000000000600052603260045260246000fd5b6020026020010151611a5a565b5050505050565b6117958383836040516024016117139392919061233e565b6040516020818303038152906040527fa3f5c739000000000000000000000000000000000000000000000000000000007bffffffffffffffffffffffffffffffffffffffffffffffffffffffff19166020820180517bffffffffffffffffffffffffffffffffffffffffffffffffffffffff8381831617835250505050611a31565b505050565b600033905090565b60008060009054906101000a900473ffffffffffffffffffffffffffffffffffffffff169050816000806101000a81548173ffffffffffffffffffffffffffffffffffffffff021916908373ffffffffffffffffffffffffffffffffffffffff1602179055508173ffffffffffffffffffffffffffffffffffffffff168173ffffffffffffffffffffffffffffffffffffffff167f8be0079c531659141344cd1fd0a4f28419497f9722a3daafe3b4186f6b6457e060405160405180910390a35050565b6001816000016000828254019250508190555050565b600081600001549050919050565b61192282826040516024016118a09291906122de565b6040516020818303038152906040527f319af333000000000000000000000000000000000000000000000000000000007bffffffffffffffffffffffffffffffffffffffffffffffffffffffff19166020820180517bffffffffffffffffffffffffffffffffffffffffffffffffffffffff8381831617835250505050611a31565b5050565b600080600260003373ffffffffffffffffffffffffffffffffffffffff1673ffffffffffffffffffffffffffffffffffffffff1681526020019081526020016000208054806020026020016040519081016040528092919081815260200182805480156119b257602002820191906000526020600020905b81548152602001906001019080831161199e575b505050505090506000805b8251811015611a265784838281518110611a00577f4e487b7100000000000000000000000000000000000000000000000000000000600052603260045260246000fd5b60200260200101511415611a1357600191505b8080611a1e906126b4565b9150506119bd565b508092505050919050565b60008151905060006a636f6e736f6c652e6c6f679050602083016000808483855afa5050505050565b611acf6040518060400160405280601b81526020017f77696e6e657243616c63756c61746564286c6f747465727949443d0000000000815250836040518060400160405280601281526020017f2c77696e6e6572416464726573733d2e2e2900000000000000000000000000008152506116fb565b611b0e6040518060400160405280601e81526020017f20202043616c63756c617465642077696e6e657220616464726573733a2000008152508261188a565b60026003811115611b48577f4e487b7100000000000000000000000000000000000000000000000000000000600052602160045260246000fd5b6005600084815260200190815260200160002060009054906101000a900460ff166003811115611ba1577f4e487b7100000000000000000000000000000000000000000000000000000000600052602160045260246000fd5b14611be1576040517f08c379a0000000000000000000000000000000000000000000000000000000008152600401611bd890612483565b60405180910390fd5b60036005600084815260200190815260200160002060006101000a81548160ff02191690836003811115611c3e577f4e487b7100000000000000000000000000000000000000000000000000000000600052602160045260246000fd5b0217905550600060066000848152602001908152602001600020549050611c9a6040518060400160405280601381526020017f2020204f6e207468652062616c616e63653a2000000000000000000000000000815250826113ad565b611cbc604051806060016040528060248152602001612abc60249139476113ad565b600060066000858152602001908152602001600020819055508173ffffffffffffffffffffffffffffffffffffffff166108fc829081150290604051600060405180830381858888f19350505050158015611d1b573d6000803e3d6000fd5b50611d5b6040518060400160405280601581526020017f2020204d6f6e6579207472616e7366657265643a2000000000000000000000008152508361188a565b600860008481526020019081526020016000206000611d7a9190611d7f565b505050565b5080546000825590600052602060002090810190611d9d9190611da0565b50565b5b80821115611db9576000816000905550600101611da1565b5090565b6000611dd0611dcb84612503565b6124de565b90508083825260208201905082856020860282011115611def57600080fd5b60005b85811015611e1f5781611e058882611e68565b845260208401935060208301925050600181019050611df2565b5050509392505050565b600081359050611e3881612a8d565b92915050565b600082601f830112611e4f57600080fd5b8135611e5f848260208601611dbd565b91505092915050565b600081359050611e7781612aa4565b92915050565b600081519050611e8c81612aa4565b92915050565b600060208284031215611ea457600080fd5b6000611eb284828501611e29565b91505092915050565b60008060408385031215611ece57600080fd5b6000611edc85828601611e29565b9250506020611eed85828601611e68565b9150509250929050565b600060208284031215611f0957600080fd5b6000611f1784828501611e68565b91505092915050565b600060208284031215611f3257600080fd5b6000611f4084828501611e7d565b91505092915050565b60008060408385031215611f5c57600080fd5b6000611f6a85828601611e68565b925050602083013567ffffffffffffffff811115611f8757600080fd5b611f9385828601611e3e565b9150509250929050565b60008060408385031215611fb057600080fd5b6000611fbe85828601611e68565b9250506020611fcf85828601611e68565b9150509250929050565b611fe2816125b3565b82525050565b611ff1816125a1565b82525050565b612000816125c5565b82525050565b61200f8161263e565b82525050565b60006120208261252f565b61202a818561253a565b935061203a818560208601612650565b612043816127ea565b840191505092915050565b600061205b60268361253a565b9150612066826127fb565b604082019050919050565b600061207e60318361253a565b91506120898261284a565b604082019050919050565b60006120a1601a8361253a565b91506120ac82612899565b602082019050919050565b60006120c4600c8361253a565b91506120cf826128c2565b602082019050919050565b60006120e7601d8361253a565b91506120f2826128eb565b602082019050919050565b600061210a60208361253a565b915061211582612914565b602082019050919050565b600061212d60238361253a565b91506121388261293d565b604082019050919050565b600061215060328361253a565b915061215b8261298c565b604082019050919050565b6000612173602a8361253a565b915061217e826129db565b604082019050919050565b600061219660228361253a565b91506121a182612a2a565b604082019050919050565b6121b5816125e2565b82525050565b6121c481612610565b82525050565b6121d38161261a565b82525050565b6121e28161262a565b82525050565b60006020820190506121fd6000830184611fe8565b92915050565b60006020820190506122186000830184611fd9565b92915050565b60006040820190506122336000830185611fe8565b6122406020830184611fe8565b9392505050565b600060408201905061225c6000830185611fe8565b61226960208301846121bb565b9392505050565b600060a0820190506122856000830188611ff7565b61229260208301876121d9565b61229f60408301866121ac565b6122ac60608301856121ca565b6122b960808301846121ca565b9695505050505050565b60006020820190506122d86000830184612006565b92915050565b600060408201905081810360008301526122f88185612015565b90506123076020830184611fe8565b9392505050565b600060408201905081810360008301526123288185612015565b905061233760208301846121bb565b9392505050565b600060608201905081810360008301526123588186612015565b905061236760208301856121bb565b81810360408301526123798184612015565b9050949350505050565b6000602082019050818103600083015261239c8161204e565b9050919050565b600060208201905081810360008301526123bc81612071565b9050919050565b600060208201905081810360008301526123dc81612094565b9050919050565b600060208201905081810360008301526123fc816120b7565b9050919050565b6000602082019050818103600083015261241c816120da565b9050919050565b6000602082019050818103600083015261243c816120fd565b9050919050565b6000602082019050818103600083015261245c81612120565b9050919050565b6000602082019050818103600083015261247c81612143565b9050919050565b6000602082019050818103600083015261249c81612166565b9050919050565b600060208201905081810360008301526124bc81612189565b9050919050565b60006020820190506124d860008301846121bb565b92915050565b60006124e86124f9565b90506124f48282612683565b919050565b6000604051905090565b600067ffffffffffffffff82111561251e5761251d6127bb565b5b602082029050602081019050919050565b600081519050919050565b600082825260208201905092915050565b600061255682612610565b915061256183612610565b9250827fffffffffffffffffffffffffffffffffffffffffffffffffffffffffffffffff038211156125965761259561272e565b5b828201905092915050565b60006125ac826125f0565b9050919050565b60006125be826125f0565b9050919050565b6000819050919050565b60008190506125dd82612a79565b919050565b600061ffff82169050919050565b600073ffffffffffffffffffffffffffffffffffffffff82169050919050565b6000819050919050565b600063ffffffff82169050919050565b600067ffffffffffffffff82169050919050565b6000612649826125cf565b9050919050565b60005b8381101561266e578082015181840152602081019050612653565b8381111561267d576000848401525b50505050565b61268c826127ea565b810181811067ffffffffffffffff821117156126ab576126aa6127bb565b5b80604052505050565b60006126bf82612610565b91507fffffffffffffffffffffffffffffffffffffffffffffffffffffffffffffffff8214156126f2576126f161272e565b5b600182019050919050565b600061270882612610565b915061271383612610565b9250826127235761272261275d565b5b828206905092915050565b7f4e487b7100000000000000000000000000000000000000000000000000000000600052601160045260246000fd5b7f4e487b7100000000000000000000000000000000000000000000000000000000600052601260045260246000fd5b7f4e487b7100000000000000000000000000000000000000000000000000000000600052602160045260246000fd5b7f4e487b7100000000000000000000000000000000000000000000000000000000600052604160045260246000fd5b6000601f19601f8301169050919050565b7f4f776e61626c653a206e6577206f776e657220697320746865207a65726f206160008201527f6464726573730000000000000000000000000000000000000000000000000000602082015250565b7f4f6e6c792063726561746f72206f6620746865204c6f74746572792063616e2060008201527f63616c63756c6174652077696e6e657273000000000000000000000000000000602082015250565b7f536f7272792c206c6f7474657279206973206e6f74206f70656e000000000000600082015250565b7f4e6f20656e7472616e6365730000000000000000000000000000000000000000600082015250565b7f536f7272792c206c6f7474657279206973206e6f742073746f70706564000000600082015250565b7f4f776e61626c653a2063616c6c6572206973206e6f7420746865206f776e6572600082015250565b7f4e6f7420656e6f7567682045544820746f20656e74657220746865206c6f747460008201527f6572790000000000000000000000000000000000000000000000000000000000602082015250565b7f4f6e6c792063726561746f72206f6620746865206c6f74746572792063616e2060008201527f73746f702074686520656e7472616e6365730000000000000000000000000000602082015250565b7f536f7272792c206c6f7474657279206973206e6f7420696e2043616c63756c6160008201527f74696e6720737461746500000000000000000000000000000000000000000000602082015250565b7f4e6f7420656e6f7567682045544820746f206372656174652061206c6f74746560008201527f7279000000000000000000000000000000000000000000000000000000000000602082015250565b60048110612a8a57612a8961278c565b5b50565b612a96816125a1565b8114612aa157600080fd5b50565b612aad81612610565b8114612ab857600080fd5b5056fe2020204f6e2074686520636f6e747261637420616464726573732062616c616e63653a2020202052616e646f6d206e756d626572207265717565737465642c206c6f747465727949443a202020536f6d65626f647920747279656420746f20656e74657220746865206c6f74746572793a20202020536f6d65626f647920656e746572656420746865206c6f747465727920616e642070617965642020202052616e646f6d206e756d626572207265717565737465642c207265717565737449443a20202020476f7420612072616e646f6d206e756d6265722e205265717565737449443a2020202053746f7070696e6720656e7472616e63652e204c6f74746572794944203a202020436f6e7665727465662072657175657374494420746f206c6f747465727949443a20202020476f7420612072616e646f6d206e756d6265722e2072616e646f6d576f7264735b305d3a20a26469706673582212209e2c09f87d9e19ac019b9379d6036f1c1183d1245d0cdfe1081d43a7186331cd64736f6c634300080400334465706c6f79696e67206120436f6e74726163744d616b65722077697468206d696e696d756d206665653a",
  "devdoc": {
    "kind": "dev",
    "methods": {
      "owner()": {
        "details": "Returns the address of the current owner."
      },
      "renounceOwnership()": {
        "details": "Leaves the contract without owner. It will not be possible to call `onlyOwner` functions anymore. Can only be called by the current owner. NOTE: Renouncing ownership will leave the contract without an owner, thereby removing any functionality that is only available to the owner."
      },
      "transferOwnership(address)": {
        "details": "Transfers ownership of the contract to a new account (`newOwner`). Can only be called by the current owner."
      }
    },
    "version": 1
  },
  "userdoc": {
    "kind": "user",
    "methods": {},
    "version": 1
  },
  "storageLayout": {
    "storage": [
      {
        "astId": 154,
        "contract": "contracts/LotteryMaker.sol:LotteryMaker",
        "label": "_owner",
        "offset": 0,
        "slot": "0",
        "type": "t_address"
      },
      {
        "astId": 375,
        "contract": "contracts/LotteryMaker.sol:LotteryMaker",
        "label": "creatorFee",
        "offset": 0,
        "slot": "1",
        "type": "t_uint256"
      },
      {
        "astId": 380,
        "contract": "contracts/LotteryMaker.sol:LotteryMaker",
        "label": "ownerLotteryIDMapping",
        "offset": 0,
        "slot": "2",
        "type": "t_mapping(t_address,t_array(t_uint256)dyn_storage)"
      },
      {
        "astId": 384,
        "contract": "contracts/LotteryMaker.sol:LotteryMaker",
        "label": "lotteryIDFeeMapping",
        "offset": 0,
        "slot": "3",
        "type": "t_mapping(t_uint256,t_uint256)"
      },
      {
        "astId": 388,
        "contract": "contracts/LotteryMaker.sol:LotteryMaker",
        "label": "lotteryIDDurationMapping",
        "offset": 0,
        "slot": "4",
        "type": "t_mapping(t_uint256,t_uint256)"
      },
      {
        "astId": 393,
        "contract": "contracts/LotteryMaker.sol:LotteryMaker",
        "label": "lotteryIDStateMapping",
        "offset": 0,
        "slot": "5",
        "type": "t_mapping(t_uint256,t_enum(LotteryState)367)"
      },
      {
        "astId": 397,
        "contract": "contracts/LotteryMaker.sol:LotteryMaker",
        "label": "lotteryIDBalanceMapping",
        "offset": 0,
        "slot": "6",
        "type": "t_mapping(t_uint256,t_uint256)"
      },
      {
        "astId": 401,
        "contract": "contracts/LotteryMaker.sol:LotteryMaker",
        "label": "requestIDLotteryIDMapping",
        "offset": 0,
        "slot": "7",
        "type": "t_mapping(t_uint256,t_uint256)"
      },
      {
        "astId": 406,
        "contract": "contracts/LotteryMaker.sol:LotteryMaker",
        "label": "lotteryIDEntrancesMapping",
        "offset": 0,
        "slot": "8",
        "type": "t_mapping(t_uint256,t_array(t_address_payable)dyn_storage)"
      },
      {
        "astId": 409,
        "contract": "contracts/LotteryMaker.sol:LotteryMaker",
        "label": "lotteryIDCounter",
        "offset": 0,
        "slot": "9",
        "type": "t_struct(Counter)279_storage"
      },
      {
        "astId": 412,
        "contract": "contracts/LotteryMaker.sol:LotteryMaker",
        "label": "COORDINATOR",
        "offset": 0,
        "slot": "10",
        "type": "t_contract(VRFCoordinatorV2Interface)146"
      },
      {
        "astId": 414,
        "contract": "contracts/LotteryMaker.sol:LotteryMaker",
        "label": "s_subscriptionId",
        "offset": 20,
        "slot": "10",
        "type": "t_uint64"
      },
      {
        "astId": 416,
        "contract": "contracts/LotteryMaker.sol:LotteryMaker",
        "label": "keyHash",
        "offset": 0,
        "slot": "11",
        "type": "t_bytes32"
      },
      {
        "astId": 419,
        "contract": "contracts/LotteryMaker.sol:LotteryMaker",
        "label": "callbackGasLimit",
        "offset": 0,
        "slot": "12",
        "type": "t_uint32"
      },
      {
        "astId": 422,
        "contract": "contracts/LotteryMaker.sol:LotteryMaker",
        "label": "requestConfirmations",
        "offset": 4,
        "slot": "12",
        "type": "t_uint16"
      },
      {
        "astId": 425,
        "contract": "contracts/LotteryMaker.sol:LotteryMaker",
        "label": "numWords",
        "offset": 6,
        "slot": "12",
        "type": "t_uint32"
      }
    ],
    "types": {
      "t_address": {
        "encoding": "inplace",
        "label": "address",
        "numberOfBytes": "20"
      },
      "t_address_payable": {
        "encoding": "inplace",
        "label": "address payable",
        "numberOfBytes": "20"
      },
      "t_array(t_address_payable)dyn_storage": {
        "base": "t_address_payable",
        "encoding": "dynamic_array",
        "label": "address payable[]",
        "numberOfBytes": "32"
      },
      "t_array(t_uint256)dyn_storage": {
        "base": "t_uint256",
        "encoding": "dynamic_array",
        "label": "uint256[]",
        "numberOfBytes": "32"
      },
      "t_bytes32": {
        "encoding": "inplace",
        "label": "bytes32",
        "numberOfBytes": "32"
      },
      "t_contract(VRFCoordinatorV2Interface)146": {
        "encoding": "inplace",
        "label": "contract VRFCoordinatorV2Interface",
        "numberOfBytes": "20"
      },
      "t_enum(LotteryState)367": {
        "encoding": "inplace",
        "label": "enum LotteryMaker.LotteryState",
        "numberOfBytes": "1"
      },
      "t_mapping(t_address,t_array(t_uint256)dyn_storage)": {
        "encoding": "mapping",
        "key": "t_address",
        "label": "mapping(address => uint256[])",
        "numberOfBytes": "32",
        "value": "t_array(t_uint256)dyn_storage"
      },
      "t_mapping(t_uint256,t_array(t_address_payable)dyn_storage)": {
        "encoding": "mapping",
        "key": "t_uint256",
        "label": "mapping(uint256 => address payable[])",
        "numberOfBytes": "32",
        "value": "t_array(t_address_payable)dyn_storage"
      },
      "t_mapping(t_uint256,t_enum(LotteryState)367)": {
        "encoding": "mapping",
        "key": "t_uint256",
        "label": "mapping(uint256 => enum LotteryMaker.LotteryState)",
        "numberOfBytes": "32",
        "value": "t_enum(LotteryState)367"
      },
      "t_mapping(t_uint256,t_uint256)": {
        "encoding": "mapping",
        "key": "t_uint256",
        "label": "mapping(uint256 => uint256)",
        "numberOfBytes": "32",
        "value": "t_uint256"
      },
      "t_struct(Counter)279_storage": {
        "encoding": "inplace",
        "label": "struct Counters.Counter",
        "members": [
          {
            "astId": 278,
            "contract": "contracts/LotteryMaker.sol:LotteryMaker",
            "label": "_value",
            "offset": 0,
            "slot": "0",
            "type": "t_uint256"
          }
        ],
        "numberOfBytes": "32"
      },
      "t_uint16": {
        "encoding": "inplace",
        "label": "uint16",
        "numberOfBytes": "2"
      },
      "t_uint256": {
        "encoding": "inplace",
        "label": "uint256",
        "numberOfBytes": "32"
      },
      "t_uint32": {
        "encoding": "inplace",
        "label": "uint32",
        "numberOfBytes": "4"
      },
      "t_uint64": {
        "encoding": "inplace",
        "label": "uint64",
        "numberOfBytes": "8"
      }
    }
  }
}