{
  "address": "0xF851f76DA71543d21633bEbb86F43dBDe10Ac6Dc",
  "abi": [
    {
      "inputs": [
        {
          "internalType": "uint256",
          "name": "_creatorFee",
          "type": "uint256"
        },
        {
          "internalType": "address",
          "name": "_vrfCoordinator",
          "type": "address"
        },
        {
          "internalType": "uint64",
          "name": "_subscriptionId",
          "type": "uint64"
        },
        {
          "internalType": "bytes32",
          "name": "_keyHash",
          "type": "bytes32"
        }
      ],
      "stateMutability": "nonpayable",
      "type": "constructor"
    },
    {
      "inputs": [
        {
          "internalType": "address",
          "name": "have",
          "type": "address"
        },
        {
          "internalType": "address",
          "name": "want",
          "type": "address"
        }
      ],
      "name": "OnlyCoordinatorCanFulfill",
      "type": "error"
    },
    {
      "anonymous": false,
      "inputs": [
        {
          "indexed": true,
          "internalType": "address",
          "name": "owner",
          "type": "address"
        },
        {
          "indexed": true,
          "internalType": "uint256",
          "name": "lotteryID",
          "type": "uint256"
        }
      ],
      "name": "LotteryCreatedEvent",
      "type": "event"
    },
    {
      "anonymous": false,
      "inputs": [
        {
          "indexed": true,
          "internalType": "address",
          "name": "previousOwner",
          "type": "address"
        },
        {
          "indexed": true,
          "internalType": "address",
          "name": "newOwner",
          "type": "address"
        }
      ],
      "name": "OwnershipTransferred",
      "type": "event"
    },
    {
      "inputs": [],
      "name": "COORDINATOR",
      "outputs": [
        {
          "internalType": "contract VRFCoordinatorV2Interface",
          "name": "",
          "type": "address"
        }
      ],
      "stateMutability": "view",
      "type": "function"
    },
    {
      "inputs": [
        {
          "internalType": "uint256",
          "name": "lotteryID",
          "type": "uint256"
        }
      ],
      "name": "calculateWinner",
      "outputs": [],
      "stateMutability": "nonpayable",
      "type": "function"
    },
    {
      "inputs": [],
      "name": "callbackGasLimit",
      "outputs": [
        {
          "internalType": "uint32",
          "name": "",
          "type": "uint32"
        }
      ],
      "stateMutability": "view",
      "type": "function"
    },
    {
      "inputs": [
        {
          "internalType": "uint256",
          "name": "_newFee",
          "type": "uint256"
        }
      ],
      "name": "changeCreatorFee",
      "outputs": [],
      "stateMutability": "nonpayable",
      "type": "function"
    },
    {
      "inputs": [
        {
          "internalType": "uint256",
          "name": "entranceFee",
          "type": "uint256"
        }
      ],
      "name": "createLottery",
      "outputs": [],
      "stateMutability": "payable",
      "type": "function"
    },
    {
      "inputs": [],
      "name": "creatorFee",
      "outputs": [
        {
          "internalType": "uint256",
          "name": "",
          "type": "uint256"
        }
      ],
      "stateMutability": "view",
      "type": "function"
    },
    {
      "inputs": [
        {
          "internalType": "uint256",
          "name": "lotteryID",
          "type": "uint256"
        }
      ],
      "name": "enterLottery",
      "outputs": [],
      "stateMutability": "payable",
      "type": "function"
    },
    {
      "inputs": [],
      "name": "keyHash",
      "outputs": [
        {
          "internalType": "bytes32",
          "name": "",
          "type": "bytes32"
        }
      ],
      "stateMutability": "view",
      "type": "function"
    },
    {
      "inputs": [
        {
          "internalType": "uint256",
          "name": "",
          "type": "uint256"
        }
      ],
      "name": "lotteryIDBalanceMapping",
      "outputs": [
        {
          "internalType": "uint256",
          "name": "",
          "type": "uint256"
        }
      ],
      "stateMutability": "view",
      "type": "function"
    },
    {
      "inputs": [
        {
          "internalType": "uint256",
          "name": "",
          "type": "uint256"
        }
      ],
      "name": "lotteryIDDurationMapping",
      "outputs": [
        {
          "internalType": "uint256",
          "name": "",
          "type": "uint256"
        }
      ],
      "stateMutability": "view",
      "type": "function"
    },
    {
      "inputs": [
        {
          "internalType": "uint256",
          "name": "",
          "type": "uint256"
        },
        {
          "internalType": "uint256",
          "name": "",
          "type": "uint256"
        }
      ],
      "name": "lotteryIDEntrancesMapping",
      "outputs": [
        {
          "internalType": "address payable",
          "name": "",
          "type": "address"
        }
      ],
      "stateMutability": "view",
      "type": "function"
    },
    {
      "inputs": [
        {
          "internalType": "uint256",
          "name": "",
          "type": "uint256"
        }
      ],
      "name": "lotteryIDFeeMapping",
      "outputs": [
        {
          "internalType": "uint256",
          "name": "",
          "type": "uint256"
        }
      ],
      "stateMutability": "view",
      "type": "function"
    },
    {
      "inputs": [
        {
          "internalType": "uint256",
          "name": "",
          "type": "uint256"
        }
      ],
      "name": "lotteryIDOwnerMapping",
      "outputs": [
        {
          "internalType": "address",
          "name": "",
          "type": "address"
        }
      ],
      "stateMutability": "view",
      "type": "function"
    },
    {
      "inputs": [
        {
          "internalType": "uint256",
          "name": "",
          "type": "uint256"
        }
      ],
      "name": "lotteryIDStateMapping",
      "outputs": [
        {
          "internalType": "enum LotteryMaker.LotteryState",
          "name": "",
          "type": "uint8"
        }
      ],
      "stateMutability": "view",
      "type": "function"
    },
    {
      "inputs": [],
      "name": "numWords",
      "outputs": [
        {
          "internalType": "uint32",
          "name": "",
          "type": "uint32"
        }
      ],
      "stateMutability": "view",
      "type": "function"
    },
    {
      "inputs": [],
      "name": "owner",
      "outputs": [
        {
          "internalType": "address",
          "name": "",
          "type": "address"
        }
      ],
      "stateMutability": "view",
      "type": "function"
    },
    {
      "inputs": [
        {
          "internalType": "uint256",
          "name": "requestId",
          "type": "uint256"
        },
        {
          "internalType": "uint256[]",
          "name": "randomWords",
          "type": "uint256[]"
        }
      ],
      "name": "rawFulfillRandomWords",
      "outputs": [],
      "stateMutability": "nonpayable",
      "type": "function"
    },
    {
      "inputs": [],
      "name": "renounceOwnership",
      "outputs": [],
      "stateMutability": "nonpayable",
      "type": "function"
    },
    {
      "inputs": [],
      "name": "requestConfirmations",
      "outputs": [
        {
          "internalType": "uint16",
          "name": "",
          "type": "uint16"
        }
      ],
      "stateMutability": "view",
      "type": "function"
    },
    {
      "inputs": [
        {
          "internalType": "uint256",
          "name": "",
          "type": "uint256"
        }
      ],
      "name": "requestIDLotteryIDMapping",
      "outputs": [
        {
          "internalType": "uint256",
          "name": "",
          "type": "uint256"
        }
      ],
      "stateMutability": "view",
      "type": "function"
    },
    {
      "inputs": [],
      "name": "s_subscriptionId",
      "outputs": [
        {
          "internalType": "uint64",
          "name": "",
          "type": "uint64"
        }
      ],
      "stateMutability": "view",
      "type": "function"
    },
    {
      "inputs": [
        {
          "internalType": "uint256",
          "name": "lotteryID",
          "type": "uint256"
        }
      ],
      "name": "stopEntrance",
      "outputs": [],
      "stateMutability": "nonpayable",
      "type": "function"
    },
    {
      "inputs": [
        {
          "internalType": "address",
          "name": "newOwner",
          "type": "address"
        }
      ],
      "name": "transferOwnership",
      "outputs": [],
      "stateMutability": "nonpayable",
      "type": "function"
    }
  ],
  "transactionHash": "0x3411f018ff11e0572f6a5b007a7884a5eb88701a268f351220cca0686c9af922",
  "args": [
    "1000000000000000",
    "0x6168499c0cFfCaCD319c818142124B7A15E857ab",
    "4307",
    "0xd89b2bf150e3b9e13446986e571fb9cab24b13cea0a43ea20a6049a85cc807cc"
  ],
  "numDeployments": 7,
  "solcInputHash": "25d53dc7b0cfa7b6c2282ee24a174fc8",
  "bytecode": "0x60a0604052620186a0600c60006101000a81548163ffffffff021916908363ffffffff1602179055506003600c60046101000a81548161ffff021916908361ffff1602179055506001600c60066101000a81548163ffffffff021916908363ffffffff1602179055503480156200007557600080fd5b50604051620025403803806200254083398181016040528101906200009b919062000364565b82620000bc620000b06200017360201b60201c565b6200017b60201b60201c565b8073ffffffffffffffffffffffffffffffffffffffff1660808173ffffffffffffffffffffffffffffffffffffffff16815250505082600a60006101000a81548173ffffffffffffffffffffffffffffffffffffffff021916908373ffffffffffffffffffffffffffffffffffffffff1602179055508360018190555081600a60146101000a81548167ffffffffffffffff021916908367ffffffffffffffff16021790555080600b8190555050505050620003d6565b600033905090565b60008060009054906101000a900473ffffffffffffffffffffffffffffffffffffffff169050816000806101000a81548173ffffffffffffffffffffffffffffffffffffffff021916908373ffffffffffffffffffffffffffffffffffffffff1602179055508173ffffffffffffffffffffffffffffffffffffffff168173ffffffffffffffffffffffffffffffffffffffff167f8be0079c531659141344cd1fd0a4f28419497f9722a3daafe3b4186f6b6457e060405160405180910390a35050565b600080fd5b6000819050919050565b620002598162000244565b81146200026557600080fd5b50565b60008151905062000279816200024e565b92915050565b600073ffffffffffffffffffffffffffffffffffffffff82169050919050565b6000620002ac826200027f565b9050919050565b620002be816200029f565b8114620002ca57600080fd5b50565b600081519050620002de81620002b3565b92915050565b600067ffffffffffffffff82169050919050565b6200030381620002e4565b81146200030f57600080fd5b50565b6000815190506200032381620002f8565b92915050565b6000819050919050565b6200033e8162000329565b81146200034a57600080fd5b50565b6000815190506200035e8162000333565b92915050565b600080600080608085870312156200038157620003806200023f565b5b6000620003918782880162000268565b9450506020620003a487828801620002cd565b9350506040620003b78782880162000312565b9250506060620003ca878288016200034d565b91505092959194509250565b608051612147620003f96000396000818161056601526105ba01526121476000f3fe6080604052600436106101405760003560e01c80638dd8c56d116100b6578063da1086a01161006f578063da1086a014610444578063deca81f21461046d578063e3c55e40146104aa578063e88958dc146104d3578063e8b161ad146104fe578063f2fde38b1461053b57610140565b80638dd8c56d1461031d5780638e4acab5146103395780639ad2acf514610376578063b0fb162f1461039f578063c1549629146103ca578063cbc388671461040757610140565b806361728f391161010857806361728f391461021d57806361dad12114610248578063715018a6146102855780637ccfd7fc1461029c5780638ac00021146102c75780638da5cb5b146102f257610140565b80631fe543e3146101455780631fec39381461016e57806324f74697146101ab5780633b2bcbf1146101d65780633fd4309814610201575b600080fd5b34801561015157600080fd5b5061016c6004803603810190610167919061163e565b610564565b005b34801561017a57600080fd5b506101956004803603810190610190919061169a565b610624565b6040516101a2919061173e565b60405180910390f35b3480156101b757600080fd5b506101c0610644565b6040516101cd9190611778565b60405180910390f35b3480156101e257600080fd5b506101eb61065a565b6040516101f89190611812565b60405180910390f35b61021b6004803603810190610216919061169a565b610680565b005b34801561022957600080fd5b5061023261080a565b60405161023f9190611846565b60405180910390f35b34801561025457600080fd5b5061026f600480360381019061026a919061169a565b610810565b60405161027c9190611882565b60405180910390f35b34801561029157600080fd5b5061029a610843565b005b3480156102a857600080fd5b506102b16108cb565b6040516102be9190611778565b60405180910390f35b3480156102d357600080fd5b506102dc6108e1565b6040516102e991906118c0565b60405180910390f35b3480156102fe57600080fd5b506103076108fb565b6040516103149190611882565b60405180910390f35b6103376004803603810190610332919061169a565b610924565b005b34801561034557600080fd5b50610360600480360381019061035b919061169a565b610a88565b60405161036d91906118ea565b60405180910390f35b34801561038257600080fd5b5061039d6004803603810190610398919061169a565b610aa0565b005b3480156103ab57600080fd5b506103b4610c07565b6040516103c19190611922565b60405180910390f35b3480156103d657600080fd5b506103f160048036038101906103ec919061169a565b610c1b565b6040516103fe91906118ea565b60405180910390f35b34801561041357600080fd5b5061042e6004803603810190610429919061193d565b610c33565b60405161043b919061199e565b60405180910390f35b34801561045057600080fd5b5061046b6004803603810190610466919061169a565b610c81565b005b34801561047957600080fd5b50610494600480360381019061048f919061169a565b610f50565b6040516104a191906118ea565b60405180910390f35b3480156104b657600080fd5b506104d160048036038101906104cc919061169a565b610f68565b005b3480156104df57600080fd5b506104e8610fee565b6040516104f591906118ea565b60405180910390f35b34801561050a57600080fd5b506105256004803603810190610520919061169a565b610ff4565b60405161053291906118ea565b60405180910390f35b34801561054757600080fd5b50610562600480360381019061055d91906119e5565b61100c565b005b7f000000000000000000000000000000000000000000000000000000000000000073ffffffffffffffffffffffffffffffffffffffff163373ffffffffffffffffffffffffffffffffffffffff161461061657337f00000000000000000000000000000000000000000000000000000000000000006040517f1cf993f400000000000000000000000000000000000000000000000000000000815260040161060d929190611a12565b60405180910390fd5b6106208282611103565b5050565b60056020528060005260406000206000915054906101000a900460ff1681565b600c60009054906101000a900463ffffffff1681565b600a60009054906101000a900473ffffffffffffffffffffffffffffffffffffffff1681565b60006003811115610694576106936116c7565b5b6005600083815260200190815260200160002060009054906101000a900460ff1660038111156106c7576106c66116c7565b5b14610707576040517f08c379a00000000000000000000000000000000000000000000000000000000081526004016106fe90611a98565b60405180910390fd5b600360008281526020019081526020016000205434101561075d576040517f08c379a000000000000000000000000000000000000000000000000000000000815260040161075490611b2a565b60405180910390fd5b34600660008381526020019081526020016000205461077c9190611b79565b600660008381526020019081526020016000208190555060086000828152602001908152602001600020339080600181540180825580915050600190039060005260206000200160009091909190916101000a81548173ffffffffffffffffffffffffffffffffffffffff021916908373ffffffffffffffffffffffffffffffffffffffff16021790555050565b600b5481565b60026020528060005260406000206000915054906101000a900473ffffffffffffffffffffffffffffffffffffffff1681565b61084b61120e565b73ffffffffffffffffffffffffffffffffffffffff166108696108fb565b73ffffffffffffffffffffffffffffffffffffffff16146108bf576040517f08c379a00000000000000000000000000000000000000000000000000000000081526004016108b690611c1b565b60405180910390fd5b6108c96000611216565b565b600c60069054906101000a900463ffffffff1681565b600a60149054906101000a900467ffffffffffffffff1681565b60008060009054906101000a900473ffffffffffffffffffffffffffffffffffffffff16905090565b600154341015610969576040517f08c379a000000000000000000000000000000000000000000000000000000000815260040161096090611cad565b60405180910390fd5b61097360096112da565b600061097f60096112f0565b905081600360008381526020019081526020016000208190555060006005600083815260200190815260200160002060006101000a81548160ff021916908360038111156109d0576109cf6116c7565b5b021790555060006006600083815260200190815260200160002081905550336002600083815260200190815260200160002060006101000a81548173ffffffffffffffffffffffffffffffffffffffff021916908373ffffffffffffffffffffffffffffffffffffffff160217905550803373ffffffffffffffffffffffffffffffffffffffff167fe03d61f742c11525b3c0d7993f45fbf687ef314840bc5afa547d6d74f40cabb660405160405180910390a35050565b60066020528060005260406000206000915090505481565b6002600082815260200190815260200160002060009054906101000a900473ffffffffffffffffffffffffffffffffffffffff1673ffffffffffffffffffffffffffffffffffffffff163373ffffffffffffffffffffffffffffffffffffffff1614610b41576040517f08c379a0000000000000000000000000000000000000000000000000000000008152600401610b3890611d3f565b60405180910390fd5b60006003811115610b5557610b546116c7565b5b6005600083815260200190815260200160002060009054906101000a900460ff166003811115610b8857610b876116c7565b5b14610bc8576040517f08c379a0000000000000000000000000000000000000000000000000000000008152600401610bbf90611a98565b60405180910390fd5b60016005600083815260200190815260200160002060006101000a81548160ff02191690836003811115610bff57610bfe6116c7565b5b021790555050565b600c60049054906101000a900461ffff1681565b60076020528060005260406000206000915090505481565b60086020528160005260406000208181548110610c4f57600080fd5b906000526020600020016000915091509054906101000a900473ffffffffffffffffffffffffffffffffffffffff1681565b6002600082815260200190815260200160002060009054906101000a900473ffffffffffffffffffffffffffffffffffffffff1673ffffffffffffffffffffffffffffffffffffffff163373ffffffffffffffffffffffffffffffffffffffff1614610d22576040517f08c379a0000000000000000000000000000000000000000000000000000000008152600401610d1990611dd1565b60405180910390fd5b60016003811115610d3657610d356116c7565b5b6005600083815260200190815260200160002060009054906101000a900460ff166003811115610d6957610d686116c7565b5b14610da9576040517f08c379a0000000000000000000000000000000000000000000000000000000008152600401610da090611e3d565b60405180910390fd5b6000600860008381526020019081526020016000208054905011610e02576040517f08c379a0000000000000000000000000000000000000000000000000000000008152600401610df990611ea9565b60405180910390fd5b60026005600083815260200190815260200160002060006101000a81548160ff02191690836003811115610e3957610e386116c7565b5b02179055506000600a60009054906101000a900473ffffffffffffffffffffffffffffffffffffffff1673ffffffffffffffffffffffffffffffffffffffff16635d3b1d30600b54600a60149054906101000a900467ffffffffffffffff16600c60049054906101000a900461ffff16600c60009054906101000a900463ffffffff16600c60069054906101000a900463ffffffff166040518663ffffffff1660e01b8152600401610eef959493929190611ec9565b6020604051808303816000875af1158015610f0e573d6000803e3d6000fd5b505050506040513d601f19601f82011682018060405250810190610f329190611f31565b90508160076000838152602001908152602001600020819055505050565b60046020528060005260406000206000915090505481565b610f7061120e565b73ffffffffffffffffffffffffffffffffffffffff16610f8e6108fb565b73ffffffffffffffffffffffffffffffffffffffff1614610fe4576040517f08c379a0000000000000000000000000000000000000000000000000000000008152600401610fdb90611c1b565b60405180910390fd5b8060018190555050565b60015481565b60036020528060005260406000206000915090505481565b61101461120e565b73ffffffffffffffffffffffffffffffffffffffff166110326108fb565b73ffffffffffffffffffffffffffffffffffffffff1614611088576040517f08c379a000000000000000000000000000000000000000000000000000000000815260040161107f90611c1b565b60405180910390fd5b600073ffffffffffffffffffffffffffffffffffffffff168173ffffffffffffffffffffffffffffffffffffffff16036110f7576040517f08c379a00000000000000000000000000000000000000000000000000000000081526004016110ee90611fd0565b60405180910390fd5b61110081611216565b50565b6000600760008481526020019081526020016000205490506000600860008381526020019081526020016000208054806020026020016040519081016040528092919081815260200182805480156111b057602002820191906000526020600020905b8160009054906101000a900473ffffffffffffffffffffffffffffffffffffffff1673ffffffffffffffffffffffffffffffffffffffff1681526020019060010190808311611166575b5050505050905060008151846000815181106111cf576111ce611ff0565b5b60200260200101516111e1919061204e565b9050611207838383815181106111fa576111f9611ff0565b5b60200260200101516112fe565b5050505050565b600033905090565b60008060009054906101000a900473ffffffffffffffffffffffffffffffffffffffff169050816000806101000a81548173ffffffffffffffffffffffffffffffffffffffff021916908373ffffffffffffffffffffffffffffffffffffffff1602179055508173ffffffffffffffffffffffffffffffffffffffff168173ffffffffffffffffffffffffffffffffffffffff167f8be0079c531659141344cd1fd0a4f28419497f9722a3daafe3b4186f6b6457e060405160405180910390a35050565b6001816000016000828254019250508190555050565b600081600001549050919050565b60026003811115611312576113116116c7565b5b6005600084815260200190815260200160002060009054906101000a900460ff166003811115611345576113446116c7565b5b14611385576040517f08c379a000000000000000000000000000000000000000000000000000000000815260040161137c906120f1565b60405180910390fd5b60036005600084815260200190815260200160002060006101000a81548160ff021916908360038111156113bc576113bb6116c7565b5b0217905550600060066000848152602001908152602001600020549050600060066000858152602001908152602001600020819055508173ffffffffffffffffffffffffffffffffffffffff166108fc829081150290604051600060405180830381858888f19350505050158015611438573d6000803e3d6000fd5b50600860008481526020019081526020016000206000611458919061145d565b505050565b508054600082559060005260206000209081019061147b919061147e565b50565b5b8082111561149757600081600090555060010161147f565b5090565b6000604051905090565b600080fd5b600080fd5b6000819050919050565b6114c2816114af565b81146114cd57600080fd5b50565b6000813590506114df816114b9565b92915050565b600080fd5b6000601f19601f8301169050919050565b7f4e487b7100000000000000000000000000000000000000000000000000000000600052604160045260246000fd5b611533826114ea565b810181811067ffffffffffffffff82111715611552576115516114fb565b5b80604052505050565b600061156561149b565b9050611571828261152a565b919050565b600067ffffffffffffffff821115611591576115906114fb565b5b602082029050602081019050919050565b600080fd5b60006115ba6115b584611576565b61155b565b905080838252602082019050602084028301858111156115dd576115dc6115a2565b5b835b8181101561160657806115f288826114d0565b8452602084019350506020810190506115df565b5050509392505050565b600082601f830112611625576116246114e5565b5b81356116358482602086016115a7565b91505092915050565b60008060408385031215611655576116546114a5565b5b6000611663858286016114d0565b925050602083013567ffffffffffffffff811115611684576116836114aa565b5b61169085828601611610565b9150509250929050565b6000602082840312156116b0576116af6114a5565b5b60006116be848285016114d0565b91505092915050565b7f4e487b7100000000000000000000000000000000000000000000000000000000600052602160045260246000fd5b60048110611707576117066116c7565b5b50565b6000819050611718826116f6565b919050565b60006117288261170a565b9050919050565b6117388161171d565b82525050565b6000602082019050611753600083018461172f565b92915050565b600063ffffffff82169050919050565b61177281611759565b82525050565b600060208201905061178d6000830184611769565b92915050565b600073ffffffffffffffffffffffffffffffffffffffff82169050919050565b6000819050919050565b60006117d86117d36117ce84611793565b6117b3565b611793565b9050919050565b60006117ea826117bd565b9050919050565b60006117fc826117df565b9050919050565b61180c816117f1565b82525050565b60006020820190506118276000830184611803565b92915050565b6000819050919050565b6118408161182d565b82525050565b600060208201905061185b6000830184611837565b92915050565b600061186c82611793565b9050919050565b61187c81611861565b82525050565b60006020820190506118976000830184611873565b92915050565b600067ffffffffffffffff82169050919050565b6118ba8161189d565b82525050565b60006020820190506118d560008301846118b1565b92915050565b6118e4816114af565b82525050565b60006020820190506118ff60008301846118db565b92915050565b600061ffff82169050919050565b61191c81611905565b82525050565b60006020820190506119376000830184611913565b92915050565b60008060408385031215611954576119536114a5565b5b6000611962858286016114d0565b9250506020611973858286016114d0565b9150509250929050565b600061198882611793565b9050919050565b6119988161197d565b82525050565b60006020820190506119b3600083018461198f565b92915050565b6119c281611861565b81146119cd57600080fd5b50565b6000813590506119df816119b9565b92915050565b6000602082840312156119fb576119fa6114a5565b5b6000611a09848285016119d0565b91505092915050565b6000604082019050611a276000830185611873565b611a346020830184611873565b9392505050565b600082825260208201905092915050565b7f536f7272792c206c6f7474657279206973206e6f74206f70656e000000000000600082015250565b6000611a82601a83611a3b565b9150611a8d82611a4c565b602082019050919050565b60006020820190508181036000830152611ab181611a75565b9050919050565b7f4e6f7420656e6f7567682045544820746f20656e74657220746865206c6f747460008201527f6572790000000000000000000000000000000000000000000000000000000000602082015250565b6000611b14602383611a3b565b9150611b1f82611ab8565b604082019050919050565b60006020820190508181036000830152611b4381611b07565b9050919050565b7f4e487b7100000000000000000000000000000000000000000000000000000000600052601160045260246000fd5b6000611b84826114af565b9150611b8f836114af565b9250827fffffffffffffffffffffffffffffffffffffffffffffffffffffffffffffffff03821115611bc457611bc3611b4a565b5b828201905092915050565b7f4f776e61626c653a2063616c6c6572206973206e6f7420746865206f776e6572600082015250565b6000611c05602083611a3b565b9150611c1082611bcf565b602082019050919050565b60006020820190508181036000830152611c3481611bf8565b9050919050565b7f4e6f7420656e6f7567682045544820746f206372656174652061206c6f74746560008201527f7279000000000000000000000000000000000000000000000000000000000000602082015250565b6000611c97602283611a3b565b9150611ca282611c3b565b604082019050919050565b60006020820190508181036000830152611cc681611c8a565b9050919050565b7f4f6e6c792063726561746f72206f6620746865206c6f74746572792063616e2060008201527f73746f702074686520656e7472616e6365730000000000000000000000000000602082015250565b6000611d29603283611a3b565b9150611d3482611ccd565b604082019050919050565b60006020820190508181036000830152611d5881611d1c565b9050919050565b7f4f6e6c792063726561746f72206f6620746865204c6f74746572792063616e2060008201527f63616c63756c6174652077696e6e657273000000000000000000000000000000602082015250565b6000611dbb603183611a3b565b9150611dc682611d5f565b604082019050919050565b60006020820190508181036000830152611dea81611dae565b9050919050565b7f536f7272792c206c6f7474657279206973206e6f742073746f70706564000000600082015250565b6000611e27601d83611a3b565b9150611e3282611df1565b602082019050919050565b60006020820190508181036000830152611e5681611e1a565b9050919050565b7f4e6f20656e7472616e6365730000000000000000000000000000000000000000600082015250565b6000611e93600c83611a3b565b9150611e9e82611e5d565b602082019050919050565b60006020820190508181036000830152611ec281611e86565b9050919050565b600060a082019050611ede6000830188611837565b611eeb60208301876118b1565b611ef86040830186611913565b611f056060830185611769565b611f126080830184611769565b9695505050505050565b600081519050611f2b816114b9565b92915050565b600060208284031215611f4757611f466114a5565b5b6000611f5584828501611f1c565b91505092915050565b7f4f776e61626c653a206e6577206f776e657220697320746865207a65726f206160008201527f6464726573730000000000000000000000000000000000000000000000000000602082015250565b6000611fba602683611a3b565b9150611fc582611f5e565b604082019050919050565b60006020820190508181036000830152611fe981611fad565b9050919050565b7f4e487b7100000000000000000000000000000000000000000000000000000000600052603260045260246000fd5b7f4e487b7100000000000000000000000000000000000000000000000000000000600052601260045260246000fd5b6000612059826114af565b9150612064836114af565b9250826120745761207361201f565b5b828206905092915050565b7f536f7272792c206c6f7474657279206973206e6f7420696e2043616c63756c6160008201527f74696e6720737461746500000000000000000000000000000000000000000000602082015250565b60006120db602a83611a3b565b91506120e68261207f565b604082019050919050565b6000602082019050818103600083015261210a816120ce565b905091905056fea26469706673582212206ccc9971a6af5c4b7c9bec82073bb76e9fb81845e5c795da8d21b58ecc0beed364736f6c634300080d0033",
  "devdoc": {
    "kind": "dev",
    "methods": {
      "owner()": {
        "details": "Returns the address of the current owner."
      },
      "renounceOwnership()": {
        "details": "Leaves the contract without owner. It will not be possible to call `onlyOwner` functions anymore. Can only be called by the current owner. NOTE: Renouncing ownership will leave the contract without an owner, thereby removing any functionality that is only available to the owner."
      },
      "transferOwnership(address)": {
        "details": "Transfers ownership of the contract to a new account (`newOwner`). Can only be called by the current owner."
      }
    },
    "version": 1
  },
  "userdoc": {
    "kind": "user",
    "methods": {},
    "version": 1
  },
  "storageLayout": {
    "storage": [
      {
        "astId": 154,
        "contract": "contracts/LotteryMaker.sol:LotteryMaker",
        "label": "_owner",
        "offset": 0,
        "slot": "0",
        "type": "t_address"
      },
      {
        "astId": 374,
        "contract": "contracts/LotteryMaker.sol:LotteryMaker",
        "label": "creatorFee",
        "offset": 0,
        "slot": "1",
        "type": "t_uint256"
      },
      {
        "astId": 378,
        "contract": "contracts/LotteryMaker.sol:LotteryMaker",
        "label": "lotteryIDOwnerMapping",
        "offset": 0,
        "slot": "2",
        "type": "t_mapping(t_uint256,t_address)"
      },
      {
        "astId": 382,
        "contract": "contracts/LotteryMaker.sol:LotteryMaker",
        "label": "lotteryIDFeeMapping",
        "offset": 0,
        "slot": "3",
        "type": "t_mapping(t_uint256,t_uint256)"
      },
      {
        "astId": 386,
        "contract": "contracts/LotteryMaker.sol:LotteryMaker",
        "label": "lotteryIDDurationMapping",
        "offset": 0,
        "slot": "4",
        "type": "t_mapping(t_uint256,t_uint256)"
      },
      {
        "astId": 391,
        "contract": "contracts/LotteryMaker.sol:LotteryMaker",
        "label": "lotteryIDStateMapping",
        "offset": 0,
        "slot": "5",
        "type": "t_mapping(t_uint256,t_enum(LotteryState)366)"
      },
      {
        "astId": 395,
        "contract": "contracts/LotteryMaker.sol:LotteryMaker",
        "label": "lotteryIDBalanceMapping",
        "offset": 0,
        "slot": "6",
        "type": "t_mapping(t_uint256,t_uint256)"
      },
      {
        "astId": 399,
        "contract": "contracts/LotteryMaker.sol:LotteryMaker",
        "label": "requestIDLotteryIDMapping",
        "offset": 0,
        "slot": "7",
        "type": "t_mapping(t_uint256,t_uint256)"
      },
      {
        "astId": 404,
        "contract": "contracts/LotteryMaker.sol:LotteryMaker",
        "label": "lotteryIDEntrancesMapping",
        "offset": 0,
        "slot": "8",
        "type": "t_mapping(t_uint256,t_array(t_address_payable)dyn_storage)"
      },
      {
        "astId": 407,
        "contract": "contracts/LotteryMaker.sol:LotteryMaker",
        "label": "lotteryIDCounter",
        "offset": 0,
        "slot": "9",
        "type": "t_struct(Counter)279_storage"
      },
      {
        "astId": 410,
        "contract": "contracts/LotteryMaker.sol:LotteryMaker",
        "label": "COORDINATOR",
        "offset": 0,
        "slot": "10",
        "type": "t_contract(VRFCoordinatorV2Interface)146"
      },
      {
        "astId": 412,
        "contract": "contracts/LotteryMaker.sol:LotteryMaker",
        "label": "s_subscriptionId",
        "offset": 20,
        "slot": "10",
        "type": "t_uint64"
      },
      {
        "astId": 414,
        "contract": "contracts/LotteryMaker.sol:LotteryMaker",
        "label": "keyHash",
        "offset": 0,
        "slot": "11",
        "type": "t_bytes32"
      },
      {
        "astId": 417,
        "contract": "contracts/LotteryMaker.sol:LotteryMaker",
        "label": "callbackGasLimit",
        "offset": 0,
        "slot": "12",
        "type": "t_uint32"
      },
      {
        "astId": 420,
        "contract": "contracts/LotteryMaker.sol:LotteryMaker",
        "label": "requestConfirmations",
        "offset": 4,
        "slot": "12",
        "type": "t_uint16"
      },
      {
        "astId": 423,
        "contract": "contracts/LotteryMaker.sol:LotteryMaker",
        "label": "numWords",
        "offset": 6,
        "slot": "12",
        "type": "t_uint32"
      }
    ],
    "types": {
      "t_address": {
        "encoding": "inplace",
        "label": "address",
        "numberOfBytes": "20"
      },
      "t_address_payable": {
        "encoding": "inplace",
        "label": "address payable",
        "numberOfBytes": "20"
      },
      "t_array(t_address_payable)dyn_storage": {
        "base": "t_address_payable",
        "encoding": "dynamic_array",
        "label": "address payable[]",
        "numberOfBytes": "32"
      },
      "t_bytes32": {
        "encoding": "inplace",
        "label": "bytes32",
        "numberOfBytes": "32"
      },
      "t_contract(VRFCoordinatorV2Interface)146": {
        "encoding": "inplace",
        "label": "contract VRFCoordinatorV2Interface",
        "numberOfBytes": "20"
      },
      "t_enum(LotteryState)366": {
        "encoding": "inplace",
        "label": "enum LotteryMaker.LotteryState",
        "numberOfBytes": "1"
      },
      "t_mapping(t_uint256,t_address)": {
        "encoding": "mapping",
        "key": "t_uint256",
        "label": "mapping(uint256 => address)",
        "numberOfBytes": "32",
        "value": "t_address"
      },
      "t_mapping(t_uint256,t_array(t_address_payable)dyn_storage)": {
        "encoding": "mapping",
        "key": "t_uint256",
        "label": "mapping(uint256 => address payable[])",
        "numberOfBytes": "32",
        "value": "t_array(t_address_payable)dyn_storage"
      },
      "t_mapping(t_uint256,t_enum(LotteryState)366)": {
        "encoding": "mapping",
        "key": "t_uint256",
        "label": "mapping(uint256 => enum LotteryMaker.LotteryState)",
        "numberOfBytes": "32",
        "value": "t_enum(LotteryState)366"
      },
      "t_mapping(t_uint256,t_uint256)": {
        "encoding": "mapping",
        "key": "t_uint256",
        "label": "mapping(uint256 => uint256)",
        "numberOfBytes": "32",
        "value": "t_uint256"
      },
      "t_struct(Counter)279_storage": {
        "encoding": "inplace",
        "label": "struct Counters.Counter",
        "members": [
          {
            "astId": 278,
            "contract": "contracts/LotteryMaker.sol:LotteryMaker",
            "label": "_value",
            "offset": 0,
            "slot": "0",
            "type": "t_uint256"
          }
        ],
        "numberOfBytes": "32"
      },
      "t_uint16": {
        "encoding": "inplace",
        "label": "uint16",
        "numberOfBytes": "2"
      },
      "t_uint256": {
        "encoding": "inplace",
        "label": "uint256",
        "numberOfBytes": "32"
      },
      "t_uint32": {
        "encoding": "inplace",
        "label": "uint32",
        "numberOfBytes": "4"
      },
      "t_uint64": {
        "encoding": "inplace",
        "label": "uint64",
        "numberOfBytes": "8"
      }
    }
  }
}